{
  "contractName": "ERC721Enumerable",
  "abi": [
    {
      "anonymous": false,
      "inputs": [
        {
          "indexed": true,
          "internalType": "address",
          "name": "contractAdress",
          "type": "address"
        },
        {
          "indexed": true,
          "internalType": "address",
          "name": "tokenOwner",
          "type": "address"
        },
        {
          "indexed": true,
          "internalType": "uint256",
          "name": "tokenId",
          "type": "uint256"
        }
      ],
      "name": "Transfer",
      "type": "event"
    },
    {
      "inputs": [
        {
          "internalType": "address",
          "name": "_owner",
          "type": "address"
        }
      ],
      "name": "balanceOf",
      "outputs": [
        {
          "internalType": "uint256",
          "name": "",
          "type": "uint256"
        }
      ],
      "stateMutability": "view",
      "type": "function"
    },
    {
      "inputs": [
        {
          "internalType": "uint256",
          "name": "_tokenId",
          "type": "uint256"
        }
      ],
      "name": "ownerOf",
      "outputs": [
        {
          "internalType": "address",
          "name": "",
          "type": "address"
        }
      ],
      "stateMutability": "view",
      "type": "function"
    },
    {
      "inputs": [
        {
          "internalType": "address",
          "name": "_from",
          "type": "address"
        },
        {
          "internalType": "address",
          "name": "_to",
          "type": "address"
        },
        {
          "internalType": "uint256",
          "name": "_tokenId",
          "type": "uint256"
        }
      ],
      "name": "transferFrom",
      "outputs": [],
      "stateMutability": "payable",
      "type": "function"
    },
    {
      "inputs": [],
      "name": "totalSupply",
      "outputs": [
        {
          "internalType": "uint256",
          "name": "",
          "type": "uint256"
        }
      ],
      "stateMutability": "view",
      "type": "function"
    },
    {
      "inputs": [
        {
          "internalType": "uint256",
          "name": "_index",
          "type": "uint256"
        }
      ],
      "name": "tokenByIndex",
      "outputs": [
        {
          "internalType": "uint256",
          "name": "",
          "type": "uint256"
        }
      ],
      "stateMutability": "view",
      "type": "function"
    },
    {
      "inputs": [
        {
          "internalType": "address",
          "name": "_owner",
          "type": "address"
        },
        {
          "internalType": "uint256",
          "name": "_index",
          "type": "uint256"
        }
      ],
      "name": "tokenOfOwnerByIndex",
      "outputs": [
        {
          "internalType": "uint256",
          "name": "",
          "type": "uint256"
        }
      ],
      "stateMutability": "view",
      "type": "function"
    }
  ],
  "bytecode": "0x608060405234801561001057600080fd5b50610d1b806100206000396000f3fe6080604052600436106100555760003560e01c806318160ddd1461005a57806323b872dd146100855780632f745c59146100a15780634f6ccce7146100de5780636352211e1461011b57806370a0823114610158575b600080fd5b34801561006657600080fd5b5061006f610195565b60405161007c919061077d565b60405180910390f35b61009f600480360381019061009a9190610827565b6101a2565b005b3480156100ad57600080fd5b506100c860048036038101906100c3919061087a565b6101b2565b6040516100d5919061077d565b60405180910390f35b3480156100ea57600080fd5b50610105600480360381019061010091906108ba565b6102d8565b604051610112919061077d565b60405180910390f35b34801561012757600080fd5b50610142600480360381019061013d91906108ba565b610356565b60405161014f91906108f6565b60405180910390f35b34801561016457600080fd5b5061017f600480360381019061017a9190610911565b610436565b60405161018c919061077d565b60405180910390f35b6000600280549050905090565b6101ad8383836104f1565b505050565b600082826101bf82610436565b8110610200576040517f08c379a00000000000000000000000000000000000000000000000000000000081526004016101f79061099b565b60405180910390fd5b84600073ffffffffffffffffffffffffffffffffffffffff168173ffffffffffffffffffffffffffffffffffffffff161415610271576040517f08c379a000000000000000000000000000000000000000000000000000000000815260040161026890610a07565b60405180910390fd5b600460008773ffffffffffffffffffffffffffffffffffffffff1673ffffffffffffffffffffffffffffffffffffffff16815260200190815260200160002085815481106102c2576102c1610a27565b5b9060005260206000200154935050505092915050565b600081600081101580156102f0575060028054905081105b61032f576040517f08c379a000000000000000000000000000000000000000000000000000000000815260040161032690610aa2565b60405180910390fd5b6002838154811061034357610342610a27565b5b9060005260206000200154915050919050565b600081600073ffffffffffffffffffffffffffffffffffffffff1660008083815260200190815260200160002060009054906101000a900473ffffffffffffffffffffffffffffffffffffffff1673ffffffffffffffffffffffffffffffffffffffff1614156103fb576040517f08c379a00000000000000000000000000000000000000000000000000000000081526004016103f290610b0e565b60405180910390fd5b60008084815260200190815260200160002060009054906101000a900473ffffffffffffffffffffffffffffffffffffffff16915050919050565b600081600073ffffffffffffffffffffffffffffffffffffffff168173ffffffffffffffffffffffffffffffffffffffff1614156104a9576040517f08c379a00000000000000000000000000000000000000000000000000000000081526004016104a090610b7a565b60405180910390fd5b600160008473ffffffffffffffffffffffffffffffffffffffff1673ffffffffffffffffffffffffffffffffffffffff16815260200190815260200160002054915050919050565b82818173ffffffffffffffffffffffffffffffffffffffff1660008083815260200190815260200160002060009054906101000a900473ffffffffffffffffffffffffffffffffffffffff1673ffffffffffffffffffffffffffffffffffffffff1614610593576040517f08c379a000000000000000000000000000000000000000000000000000000000815260040161058a90610c0c565b60405180910390fd5b83600073ffffffffffffffffffffffffffffffffffffffff168173ffffffffffffffffffffffffffffffffffffffff161415610604576040517f08c379a00000000000000000000000000000000000000000000000000000000081526004016105fb90610b7a565b60405180910390fd5b60018060008873ffffffffffffffffffffffffffffffffffffffff1673ffffffffffffffffffffffffffffffffffffffff16815260200190815260200160002060008282546106539190610c5b565b9250508190555060018060008773ffffffffffffffffffffffffffffffffffffffff1673ffffffffffffffffffffffffffffffffffffffff16815260200190815260200160002060008282546106a99190610c8f565b925050819055508460008086815260200190815260200160002060006101000a81548173ffffffffffffffffffffffffffffffffffffffff021916908373ffffffffffffffffffffffffffffffffffffffff160217905550838573ffffffffffffffffffffffffffffffffffffffff168773ffffffffffffffffffffffffffffffffffffffff167fddf252ad1be2c89b69c2b068fc378daa952ba7f163c4a11628f55a4df523b3ef60405160405180910390a4505050505050565b6000819050919050565b61077781610764565b82525050565b6000602082019050610792600083018461076e565b92915050565b600080fd5b600073ffffffffffffffffffffffffffffffffffffffff82169050919050565b60006107c88261079d565b9050919050565b6107d8816107bd565b81146107e357600080fd5b50565b6000813590506107f5816107cf565b92915050565b61080481610764565b811461080f57600080fd5b50565b600081359050610821816107fb565b92915050565b6000806000606084860312156108405761083f610798565b5b600061084e868287016107e6565b935050602061085f868287016107e6565b925050604061087086828701610812565b9150509250925092565b6000806040838503121561089157610890610798565b5b600061089f858286016107e6565b92505060206108b085828601610812565b9150509250929050565b6000602082840312156108d0576108cf610798565b5b60006108de84828501610812565b91505092915050565b6108f0816107bd565b82525050565b600060208201905061090b60008301846108e7565b92915050565b60006020828403121561092757610926610798565b5b6000610935848285016107e6565b91505092915050565b600082825260208201905092915050565b7f696e76616c6964206f776e657220746f6b656e20696e64657800000000000000600082015250565b600061098560198361093e565b91506109908261094f565b602082019050919050565b600060208201905081810360008301526109b481610978565b9050919050565b7f696e76616c696420616464726573730000000000000000000000000000000000600082015250565b60006109f1600f8361093e565b91506109fc826109bb565b602082019050919050565b60006020820190508181036000830152610a20816109e4565b9050919050565b7f4e487b7100000000000000000000000000000000000000000000000000000000600052603260045260246000fd5b7f746f6b656e20696e64657820696e76616c696400000000000000000000000000600082015250565b6000610a8c60138361093e565b9150610a9782610a56565b602082019050919050565b60006020820190508181036000830152610abb81610a7f565b9050919050565b7f4e465420746f6b656e206973206e6f74206f776e656400000000000000000000600082015250565b6000610af860168361093e565b9150610b0382610ac2565b602082019050919050565b60006020820190508181036000830152610b2781610aeb565b9050919050565b7f4552433732313a206164647265737320646f65736e7420657869737400000000600082015250565b6000610b64601c8361093e565b9150610b6f82610b2e565b602082019050919050565b60006020820190508181036000830152610b9381610b57565b9050919050565b7f73656e646572206f66207472616e73616374696f6e206973206e6f742074686560008201527f206f776e6572206f662074686520746f6b656e00000000000000000000000000602082015250565b6000610bf660338361093e565b9150610c0182610b9a565b604082019050919050565b60006020820190508181036000830152610c2581610be9565b9050919050565b7f4e487b7100000000000000000000000000000000000000000000000000000000600052601160045260246000fd5b6000610c6682610764565b9150610c7183610764565b925082821015610c8457610c83610c2c565b5b828203905092915050565b6000610c9a82610764565b9150610ca583610764565b9250827fffffffffffffffffffffffffffffffffffffffffffffffffffffffffffffffff03821115610cda57610cd9610c2c565b5b82820190509291505056fea2646970667358221220504103d53b182989794be35e72582f735e22d639a9a1e501318493f1c13749fc64736f6c634300080a0033",
  "immutableReferences": {},
  "source": "// SPDX-License-Identifier: MIT\npragma solidity ^0.8.10;\n\nimport \"./ERC721.sol\";\n\ncontract ERC721Enumerable is ERC721 {\n  uint256[] private _allTokens;\n\n  // mapping from tokenId to position in _allTokens array\n  mapping(uint256 => uint256) private _allTokenIndex;\n\n  //mapping from owner to list of all owned token ids\n  mapping(address => uint256[]) private _ownedTokens;\n\n  // mapping from token ID to index of the owner tokens list\n  mapping(uint256 => uint256) private _ownedTokensIndex;\n\n  modifier validAddress(address to) {\n    require(to != address(0), \"invalid address\");\n    _;\n  }\n\n  modifier ownerTokenValidIndex(address to, uint256 index) {\n    require(index < balanceOf(to), \"invalid owner token index\");\n    _;\n  }\n\n  modifier tokenValidIndex(uint256 index) {\n    require(index >= 0 && index < _allTokens.length, \"token index invalid\");\n    _;\n  }\n\n  /// @notice Count NFTs tracked by this contract\n  /// @return A count of valid NFTs tracked by this contract, where each one of\n  ///  them has an assigned and queryable owner not equal to the zero address\n  function totalSupply() external view returns (uint256) {\n    return _allTokens.length;\n  }\n\n  /// @notice Enumerate valid NFTs\n  /// @dev Throws if `_index` >= `totalSupply()`.\n  /// @param _index A counter less than `totalSupply()`\n  /// @return The token identifier for the `_index`th NFT,\n  ///  (sort order not specified)\n  function tokenByIndex(uint256 _index)\n    external\n    view\n    tokenValidIndex(_index)\n    returns (uint256)\n  {\n    //pass in index\n    //if index >= length || index < 0 then return error(\"Index out of bounds\")\n    //else\n    //return tokenId associate with index\n    return _allTokens[_index];\n  }\n\n  /// @notice Enumerate NFTs assigned to an owner\n  /// @dev Throws if `_index` >= `balanceOf(_owner)` or if\n  ///  `_owner` is the zero address, representing invalid NFTs.\n  /// @param _owner An address where we are interested in NFTs owned by them\n  /// @param _index A counter less than `balanceOf(_owner)`\n  /// @return The token identifier for the `_index`th NFT assigned to `_owner`,\n  ///   (sort order not specified)\n  //fix tokenValidIndex should pertain to owners list and not whole\n  function tokenOfOwnerByIndex(address _owner, uint256 _index)\n    external\n    view\n    ownerTokenValidIndex(_owner, _index)\n    validAddress(_owner)\n    returns (uint256)\n  {\n    return _ownedTokens[_owner][_index];\n  }\n\n  function addTokensToAllTokenEnumeration(uint256 tokenId) private {\n    //1.add tokens to our total supply\n    _allTokens.push(tokenId);\n    //2. map token id to all tokens index\n    _allTokenIndex[tokenId] = _allTokens.length;\n  }\n\n  function addTokensToOwnerEnumeration(address to, uint256 tokenId) private {\n    //1.add tokens to the owner\n    _ownedTokens[to].push(tokenId);\n    //3. add token id to _owned tokens array that belonngs to user\n    _ownedTokensIndex[tokenId] = _ownedTokens[to].length;\n  }\n\n  //override ERC721 mint function\n  function _mint(address to, uint256 tokenId) internal override(ERC721) {\n    super._mint(to, tokenId);\n    addTokensToAllTokenEnumeration(tokenId);\n    addTokensToOwnerEnumeration(to, tokenId);\n  }\n}\n",
  "sourcePath": "/Users/cesperon/Desktop/GT/nft-marketplace/src/contracts/ERC721Enumerable.sol",
  "compiler": {
    "name": "solc",
    "version": "0.8.10+commit.fc410830.Emscripten.clang"
  },
  "schemaVersion": "3.4.3",
  "updatedAt": "2021-12-01T12:12:17.779Z",
  "devdoc": {
    "kind": "dev",
    "methods": {
      "balanceOf(address)": {
        "details": "NFTs assigned to the zero address are considered invalid, and this  function throws for queries about the zero address.",
        "params": {
          "_owner": "An address for whom to query the balance"
        },
        "returns": {
          "_0": "The number of NFTs owned by `_owner`, possibly zero"
        }
      },
      "ownerOf(uint256)": {
        "details": "NFTs assigned to zero address are considered invalid, and queries  about them do throw.",
        "params": {
          "_tokenId": "The identifier for an NFT"
        },
        "returns": {
          "_0": "The address of the owner of the NFT"
        }
      },
      "tokenByIndex(uint256)": {
        "details": "Throws if `_index` >= `totalSupply()`.",
        "params": {
          "_index": "A counter less than `totalSupply()`"
        },
        "returns": {
          "_0": "The token identifier for the `_index`th NFT,  (sort order not specified)"
        }
      },
      "tokenOfOwnerByIndex(address,uint256)": {
        "details": "Throws if `_index` >= `balanceOf(_owner)` or if  `_owner` is the zero address, representing invalid NFTs.",
        "params": {
          "_index": "A counter less than `balanceOf(_owner)`",
          "_owner": "An address where we are interested in NFTs owned by them"
        },
        "returns": {
          "_0": "The token identifier for the `_index`th NFT assigned to `_owner`,   (sort order not specified)"
        }
      },
      "totalSupply()": {
        "returns": {
          "_0": "A count of valid NFTs tracked by this contract, where each one of  them has an assigned and queryable owner not equal to the zero address"
        }
      },
      "transferFrom(address,address,uint256)": {
        "details": "Throws unless `msg.sender` is the current owner, an authorized  operator, or the approved address for this NFT. Throws if `_from` is  not the current owner. Throws if `_to` is the zero address. Throws if  `_tokenId` is not a valid NFT.",
        "params": {
          "_from": "The current owner of the NFT",
          "_to": "The new owner",
          "_tokenId": "The NFT to transfer"
        }
      }
    },
    "version": 1
  },
  "userdoc": {
    "kind": "user",
    "methods": {
      "balanceOf(address)": {
        "notice": "Count all NFTs assigned to an owner"
      },
      "ownerOf(uint256)": {
        "notice": "Find the owner of an NFT"
      },
      "tokenByIndex(uint256)": {
        "notice": "Enumerate valid NFTs"
      },
      "tokenOfOwnerByIndex(address,uint256)": {
        "notice": "Enumerate NFTs assigned to an owner"
      },
      "totalSupply()": {
        "notice": "Count NFTs tracked by this contract"
      },
      "transferFrom(address,address,uint256)": {
        "notice": "Transfer ownership of an NFT -- THE CALLER IS RESPONSIBLE  TO CONFIRM THAT `_to` IS CAPABLE OF RECEIVING NFTS OR ELSE  THEY MAY BE PERMANENTLY LOST"
      }
    },
    "version": 1
  }
}