{
  "contractName": "ERC721Connector",
  "abi": [
    {
      "inputs": [
        {
          "internalType": "string",
          "name": "name",
          "type": "string"
        },
        {
          "internalType": "string",
          "name": "symbol",
          "type": "string"
        },
        {
          "internalType": "uint256",
          "name": "id",
          "type": "uint256"
        }
      ],
      "stateMutability": "nonpayable",
      "type": "constructor"
    },
    {
      "anonymous": false,
      "inputs": [
        {
          "indexed": true,
          "internalType": "address",
          "name": "contractAdress",
          "type": "address"
        },
        {
          "indexed": true,
          "internalType": "address",
          "name": "tokenOwner",
          "type": "address"
        },
        {
          "indexed": true,
          "internalType": "uint256",
          "name": "tokenId",
          "type": "uint256"
        }
      ],
      "name": "Transfer",
      "type": "event"
    },
    {
      "inputs": [
        {
          "internalType": "address",
          "name": "_owner",
          "type": "address"
        }
      ],
      "name": "balanceOf",
      "outputs": [
        {
          "internalType": "uint256",
          "name": "",
          "type": "uint256"
        }
      ],
      "stateMutability": "view",
      "type": "function"
    },
    {
      "inputs": [],
      "name": "id",
      "outputs": [
        {
          "internalType": "uint256",
          "name": "",
          "type": "uint256"
        }
      ],
      "stateMutability": "view",
      "type": "function"
    },
    {
      "inputs": [],
      "name": "name",
      "outputs": [
        {
          "internalType": "string",
          "name": "",
          "type": "string"
        }
      ],
      "stateMutability": "view",
      "type": "function"
    },
    {
      "inputs": [
        {
          "internalType": "uint256",
          "name": "_tokenId",
          "type": "uint256"
        }
      ],
      "name": "ownerOf",
      "outputs": [
        {
          "internalType": "address",
          "name": "",
          "type": "address"
        }
      ],
      "stateMutability": "view",
      "type": "function"
    },
    {
      "inputs": [],
      "name": "symbol",
      "outputs": [
        {
          "internalType": "string",
          "name": "",
          "type": "string"
        }
      ],
      "stateMutability": "view",
      "type": "function"
    },
    {
      "inputs": [
        {
          "internalType": "uint256",
          "name": "_index",
          "type": "uint256"
        }
      ],
      "name": "tokenByIndex",
      "outputs": [
        {
          "internalType": "uint256",
          "name": "",
          "type": "uint256"
        }
      ],
      "stateMutability": "view",
      "type": "function"
    },
    {
      "inputs": [
        {
          "internalType": "address",
          "name": "_owner",
          "type": "address"
        },
        {
          "internalType": "uint256",
          "name": "_index",
          "type": "uint256"
        }
      ],
      "name": "tokenOfOwnerByIndex",
      "outputs": [
        {
          "internalType": "uint256",
          "name": "",
          "type": "uint256"
        }
      ],
      "stateMutability": "view",
      "type": "function"
    },
    {
      "inputs": [],
      "name": "totalSupply",
      "outputs": [
        {
          "internalType": "uint256",
          "name": "",
          "type": "uint256"
        }
      ],
      "stateMutability": "view",
      "type": "function"
    }
  ],
  "bytecode": "0x60806040523480156200001157600080fd5b5060405162000f1738038062000f17833981810160405281019062000037919062000307565b8282828260009080519060200190620000529291906200007f565b5081600190805190602001906200006b9291906200007f565b508060028190555050505050505062000406565b8280546200008d90620003d0565b90600052602060002090601f016020900481019282620000b15760008555620000fd565b82601f10620000cc57805160ff1916838001178555620000fd565b82800160010185558215620000fd579182015b82811115620000fc578251825591602001919060010190620000df565b5b5090506200010c919062000110565b5090565b5b808211156200012b57600081600090555060010162000111565b5090565b6000604051905090565b600080fd5b600080fd5b600080fd5b600080fd5b6000601f19601f8301169050919050565b7f4e487b7100000000000000000000000000000000000000000000000000000000600052604160045260246000fd5b62000198826200014d565b810181811067ffffffffffffffff82111715620001ba57620001b96200015e565b5b80604052505050565b6000620001cf6200012f565b9050620001dd82826200018d565b919050565b600067ffffffffffffffff8211156200020057620001ff6200015e565b5b6200020b826200014d565b9050602081019050919050565b60005b83811015620002385780820151818401526020810190506200021b565b8381111562000248576000848401525b50505050565b6000620002656200025f84620001e2565b620001c3565b90508281526020810184848401111562000284576200028362000148565b5b6200029184828562000218565b509392505050565b600082601f830112620002b157620002b062000143565b5b8151620002c38482602086016200024e565b91505092915050565b6000819050919050565b620002e181620002cc565b8114620002ed57600080fd5b50565b6000815190506200030181620002d6565b92915050565b60008060006060848603121562000323576200032262000139565b5b600084015167ffffffffffffffff8111156200034457620003436200013e565b5b620003528682870162000299565b935050602084015167ffffffffffffffff8111156200037657620003756200013e565b5b620003848682870162000299565b92505060406200039786828701620002f0565b9150509250925092565b7f4e487b7100000000000000000000000000000000000000000000000000000000600052602260045260246000fd5b60006002820490506001821680620003e957607f821691505b602082108114156200040057620003ff620003a1565b5b50919050565b610b0180620004166000396000f3fe608060405234801561001057600080fd5b50600436106100885760003560e01c80636352211e1161005b5780636352211e1461012957806370a082311461015957806395d89b4114610189578063af640d0f146101a757610088565b806306fdde031461008d57806318160ddd146100ab5780632f745c59146100c95780634f6ccce7146100f9575b600080fd5b6100956101c5565b6040516100a291906106e2565b60405180910390f35b6100b3610257565b6040516100c0919061071d565b60405180910390f35b6100e360048036038101906100de91906107c7565b610264565b6040516100f0919061071d565b60405180910390f35b610113600480360381019061010e9190610807565b610392565b604051610120919061071d565b60405180910390f35b610143600480360381019061013e9190610807565b610410565b6040516101509190610843565b60405180910390f35b610173600480360381019061016e919061085e565b6104f2565b604051610180919061071d565b60405180910390f35b6101916105ad565b60405161019e91906106e2565b60405180910390f35b6101af61063f565b6040516101bc919061071d565b60405180910390f35b6060600080546101d4906108ba565b80601f0160208091040260200160405190810160405280929190818152602001828054610200906108ba565b801561024d5780601f106102225761010080835404028352916020019161024d565b820191906000526020600020905b81548152906001019060200180831161023057829003601f168201915b5050505050905090565b6000600580549050905090565b6000816000811015801561027c575060058054905081105b6102bb576040517f08c379a00000000000000000000000000000000000000000000000000000000081526004016102b290610938565b60405180910390fd5b83600073ffffffffffffffffffffffffffffffffffffffff168173ffffffffffffffffffffffffffffffffffffffff16141561032c576040517f08c379a0000000000000000000000000000000000000000000000000000000008152600401610323906109a4565b60405180910390fd5b600760008673ffffffffffffffffffffffffffffffffffffffff1673ffffffffffffffffffffffffffffffffffffffff168152602001908152602001600020848154811061037d5761037c6109c4565b5b90600052602060002001549250505092915050565b600081600081101580156103aa575060058054905081105b6103e9576040517f08c379a00000000000000000000000000000000000000000000000000000000081526004016103e090610938565b60405180910390fd5b600583815481106103fd576103fc6109c4565b5b9060005260206000200154915050919050565b600081600073ffffffffffffffffffffffffffffffffffffffff166003600083815260200190815260200160002060009054906101000a900473ffffffffffffffffffffffffffffffffffffffff1673ffffffffffffffffffffffffffffffffffffffff1614156104b6576040517f08c379a00000000000000000000000000000000000000000000000000000000081526004016104ad90610a3f565b60405180910390fd5b6003600084815260200190815260200160002060009054906101000a900473ffffffffffffffffffffffffffffffffffffffff16915050919050565b600081600073ffffffffffffffffffffffffffffffffffffffff168173ffffffffffffffffffffffffffffffffffffffff161415610565576040517f08c379a000000000000000000000000000000000000000000000000000000000815260040161055c90610aab565b60405180910390fd5b600460008473ffffffffffffffffffffffffffffffffffffffff1673ffffffffffffffffffffffffffffffffffffffff16815260200190815260200160002054915050919050565b6060600180546105bc906108ba565b80601f01602080910402602001604051908101604052809291908181526020018280546105e8906108ba565b80156106355780601f1061060a57610100808354040283529160200191610635565b820191906000526020600020905b81548152906001019060200180831161061857829003601f168201915b5050505050905090565b6000600254905090565b600081519050919050565b600082825260208201905092915050565b60005b83811015610683578082015181840152602081019050610668565b83811115610692576000848401525b50505050565b6000601f19601f8301169050919050565b60006106b482610649565b6106be8185610654565b93506106ce818560208601610665565b6106d781610698565b840191505092915050565b600060208201905081810360008301526106fc81846106a9565b905092915050565b6000819050919050565b61071781610704565b82525050565b6000602082019050610732600083018461070e565b92915050565b600080fd5b600073ffffffffffffffffffffffffffffffffffffffff82169050919050565b60006107688261073d565b9050919050565b6107788161075d565b811461078357600080fd5b50565b6000813590506107958161076f565b92915050565b6107a481610704565b81146107af57600080fd5b50565b6000813590506107c18161079b565b92915050565b600080604083850312156107de576107dd610738565b5b60006107ec85828601610786565b92505060206107fd858286016107b2565b9150509250929050565b60006020828403121561081d5761081c610738565b5b600061082b848285016107b2565b91505092915050565b61083d8161075d565b82525050565b60006020820190506108586000830184610834565b92915050565b60006020828403121561087457610873610738565b5b600061088284828501610786565b91505092915050565b7f4e487b7100000000000000000000000000000000000000000000000000000000600052602260045260246000fd5b600060028204905060018216806108d257607f821691505b602082108114156108e6576108e561088b565b5b50919050565b7f746f6b656e20696e64657820696e76616c696400000000000000000000000000600082015250565b6000610922601383610654565b915061092d826108ec565b602082019050919050565b6000602082019050818103600083015261095181610915565b9050919050565b7f696e76616c696420616464726573730000000000000000000000000000000000600082015250565b600061098e600f83610654565b915061099982610958565b602082019050919050565b600060208201905081810360008301526109bd81610981565b9050919050565b7f4e487b7100000000000000000000000000000000000000000000000000000000600052603260045260246000fd5b7f4e465420746f6b656e206973206e6f74206f776e656400000000000000000000600082015250565b6000610a29601683610654565b9150610a34826109f3565b602082019050919050565b60006020820190508181036000830152610a5881610a1c565b9050919050565b7f4552433732313a206164647265737320646f65736e7420657869737400000000600082015250565b6000610a95601c83610654565b9150610aa082610a5f565b602082019050919050565b60006020820190508181036000830152610ac481610a88565b905091905056fea264697066735822122019499885054e23b74b9281039d4cc70bc438c39790f74d5c2297a463b972a0c264736f6c634300080a0033",
  "immutableReferences": {},
  "source": "// SPDX-License-Identifier: MIT\npragma solidity ^0.8.10;\n\nimport \"./ERC721Metadata.sol\";\nimport \"./ERC721Enumerable.sol\";\n\n//inhertiance keywords all functions in ERC721Metada, ERC721 that are public are now in the connector\ncontract ERC721Connector is ERC721Metadata, ERC721Enumerable {\n  constructor(\n    string memory name,\n    string memory symbol,\n    uint256 id\n  ) ERC721Metadata(name, symbol, id) {}\n}\n",
  "sourcePath": "/Users/cesperon/Desktop/GT/nft-marketplace/src/contracts/ERC721Connector.sol",
  "compiler": {
    "name": "solc",
    "version": "0.8.10+commit.fc410830.Emscripten.clang"
  },
  "schemaVersion": "3.4.3",
  "updatedAt": "2021-11-27T14:48:35.573Z",
  "devdoc": {
    "kind": "dev",
    "methods": {
      "balanceOf(address)": {
        "details": "NFTs assigned to the zero address are considered invalid, and this  function throws for queries about the zero address.",
        "params": {
          "_owner": "An address for whom to query the balance"
        },
        "returns": {
          "_0": "The number of NFTs owned by `_owner`, possibly zero"
        }
      },
      "ownerOf(uint256)": {
        "details": "NFTs assigned to zero address are considered invalid, and queries  about them do throw.",
        "params": {
          "_tokenId": "The identifier for an NFT"
        },
        "returns": {
          "_0": "The address of the owner of the NFT"
        }
      },
      "tokenByIndex(uint256)": {
        "details": "Throws if `_index` >= `totalSupply()`.",
        "params": {
          "_index": "A counter less than `totalSupply()`"
        },
        "returns": {
          "_0": "The token identifier for the `_index`th NFT,  (sort order not specified)"
        }
      },
      "tokenOfOwnerByIndex(address,uint256)": {
        "details": "Throws if `_index` >= `balanceOf(_owner)` or if  `_owner` is the zero address, representing invalid NFTs.",
        "params": {
          "_index": "A counter less than `balanceOf(_owner)`",
          "_owner": "An address where we are interested in NFTs owned by them"
        },
        "returns": {
          "_0": "The token identifier for the `_index`th NFT assigned to `_owner`,   (sort order not specified)"
        }
      },
      "totalSupply()": {
        "returns": {
          "_0": "A count of valid NFTs tracked by this contract, where each one of  them has an assigned and queryable owner not equal to the zero address"
        }
      }
    },
    "version": 1
  },
  "userdoc": {
    "kind": "user",
    "methods": {
      "balanceOf(address)": {
        "notice": "Count all NFTs assigned to an owner"
      },
      "ownerOf(uint256)": {
        "notice": "Find the owner of an NFT"
      },
      "tokenByIndex(uint256)": {
        "notice": "Enumerate valid NFTs"
      },
      "tokenOfOwnerByIndex(address,uint256)": {
        "notice": "Enumerate NFTs assigned to an owner"
      },
      "totalSupply()": {
        "notice": "Count NFTs tracked by this contract"
      }
    },
    "version": 1
  }
}