{
  "contractName": "ERC721",
  "abi": [
    {
      "anonymous": false,
      "inputs": [
        {
          "indexed": true,
          "internalType": "address",
          "name": "contractAdress",
          "type": "address"
        },
        {
          "indexed": true,
          "internalType": "address",
          "name": "tokenOwner",
          "type": "address"
        },
        {
          "indexed": true,
          "internalType": "uint256",
          "name": "tokenId",
          "type": "uint256"
        }
      ],
      "name": "Transfer",
      "type": "event"
    },
    {
      "inputs": [
        {
          "internalType": "address",
          "name": "_owner",
          "type": "address"
        }
      ],
      "name": "balanceOf",
      "outputs": [
        {
          "internalType": "uint256",
          "name": "",
          "type": "uint256"
        }
      ],
      "stateMutability": "view",
      "type": "function"
    },
    {
      "inputs": [
        {
          "internalType": "uint256",
          "name": "_tokenId",
          "type": "uint256"
        }
      ],
      "name": "ownerOf",
      "outputs": [
        {
          "internalType": "address",
          "name": "",
          "type": "address"
        }
      ],
      "stateMutability": "view",
      "type": "function"
    }
  ],
  "bytecode": "0x608060405234801561001057600080fd5b5061049c806100206000396000f3fe608060405234801561001057600080fd5b50600436106100365760003560e01c80636352211e1461003b57806370a082311461006b575b600080fd5b61005560048036038101906100509190610271565b61009b565b60405161006291906102df565b60405180910390f35b61008560048036038101906100809190610326565b61017b565b6040516100929190610362565b60405180910390f35b600081600073ffffffffffffffffffffffffffffffffffffffff1660008083815260200190815260200160002060009054906101000a900473ffffffffffffffffffffffffffffffffffffffff1673ffffffffffffffffffffffffffffffffffffffff161415610140576040517f08c379a0000000000000000000000000000000000000000000000000000000008152600401610137906103da565b60405180910390fd5b60008084815260200190815260200160002060009054906101000a900473ffffffffffffffffffffffffffffffffffffffff16915050919050565b600081600073ffffffffffffffffffffffffffffffffffffffff168173ffffffffffffffffffffffffffffffffffffffff1614156101ee576040517f08c379a00000000000000000000000000000000000000000000000000000000081526004016101e590610446565b60405180910390fd5b600160008473ffffffffffffffffffffffffffffffffffffffff1673ffffffffffffffffffffffffffffffffffffffff16815260200190815260200160002054915050919050565b600080fd5b6000819050919050565b61024e8161023b565b811461025957600080fd5b50565b60008135905061026b81610245565b92915050565b60006020828403121561028757610286610236565b5b60006102958482850161025c565b91505092915050565b600073ffffffffffffffffffffffffffffffffffffffff82169050919050565b60006102c98261029e565b9050919050565b6102d9816102be565b82525050565b60006020820190506102f460008301846102d0565b92915050565b610303816102be565b811461030e57600080fd5b50565b600081359050610320816102fa565b92915050565b60006020828403121561033c5761033b610236565b5b600061034a84828501610311565b91505092915050565b61035c8161023b565b82525050565b60006020820190506103776000830184610353565b92915050565b600082825260208201905092915050565b7f4e465420746f6b656e206973206e6f74206f776e656400000000000000000000600082015250565b60006103c460168361037d565b91506103cf8261038e565b602082019050919050565b600060208201905081810360008301526103f3816103b7565b9050919050565b7f4552433732313a206164647265737320646f65736e7420657869737400000000600082015250565b6000610430601c8361037d565b915061043b826103fa565b602082019050919050565b6000602082019050818103600083015261045f81610423565b905091905056fea2646970667358221220b52f93d931a5cf5a861bfc147d7a7d81fdf53a10f0c7c0b70a998d74c3fb9fb964736f6c634300080a0033",
  "immutableReferences": {},
  "source": "// SPDX-License-Identifier: MIT\npragma solidity ^0.8.10;\n\ncontract ERC721 {\n  /*\n    building out the minting function:\n        a. nft to point to an address that\n        b. keep track of the token ids\n        c. keep track of token owner addresses to token ids\n        d. keep track of how many tokens an owner address has\n        e. create an event that emits a \n        transfer log- contract address, where it is being minted to, the id\n    */\n\n  /*\n    minting basic protocol:\n      1. write a function _mint that takes two arguments \n      an address called to and an integer tokenId.\n      2. add internal visibility to the signature of the\n      3. set the tokenOwner of the tokenId to the address\n      argument 'to'\n      4. increase the owner token count by 1 each time the function\n      is called\n\n    require:\n      1. mint address cannot be 0\n      2. a token that is minted cannot be already\n      minted\n\n   */\n  //shows data of indexed token, use indexed to search through evm typically 3 per event\n  event Transfer(\n    address indexed contractAdress,\n    address indexed tokenOwner,\n    uint256 indexed tokenId\n  );\n  //mapping from token id to owner\n  mapping(uint256 => address) private _tokenOwner;\n\n  //mapping from owner to number of owned tokens\n  mapping(address => uint256) private _OwnedTokensCount;\n\n  //modifiers act as error checking for functions\n  modifier addressNotNull(address tokenOwner) {\n    require(tokenOwner != address(0), \"ERC721: address doesnt exist\");\n    _;\n  }\n\n  modifier nftOwned(uint256 id) {\n    require(_tokenOwner[id] != address(0), \"NFT token is not owned\");\n    _;\n  }\n\n  //modifiers act as error checking for functions\n  modifier tokenNotMinted(uint256 tokenId) {\n    require(\n      _tokenOwner[tokenId] == address(0),\n      \"This function is requires that tokenID has not been minted\"\n    );\n    _;\n  }\n\n  //basic minting function\n  //internal functions can only be access by contract or derived contracts\n  //virtual functions allow for other functions to override original functionality\n  function _mint(address tokenOwner, uint256 tokenId)\n    internal\n    virtual\n    addressNotNull(tokenOwner)\n    tokenNotMinted(tokenId)\n  {\n    //in map set token id to token owner address\n    _tokenOwner[tokenId] = tokenOwner;\n    //in map increment addresses owned tokens\n    _OwnedTokensCount[tokenOwner] += 1;\n\n    emit Transfer(address(0), tokenOwner, tokenId);\n  }\n\n  /// @notice Count all NFTs assigned to an owner\n  /// @dev NFTs assigned to the zero address are considered invalid, and this\n  ///  function throws for queries about the zero address.\n  /// @param _owner An address for whom to query the balance\n  /// @return The number of NFTs owned by `_owner`, possibly zero\n  function balanceOf(address _owner)\n    public\n    view\n    addressNotNull(_owner)\n    returns (uint256)\n  {\n    return _OwnedTokensCount[_owner];\n  }\n\n  /// @notice Find the owner of an NFT\n  /// @dev NFTs assigned to zero address are considered invalid, and queries\n  ///  about them do throw.\n  /// @param _tokenId The identifier for an NFT\n  /// @return The address of the owner of the NFT\n  function ownerOf(uint256 _tokenId)\n    external\n    view\n    nftOwned(_tokenId)\n    returns (address)\n  {\n    return _tokenOwner[_tokenId];\n  }\n}\n",
  "sourcePath": "/Users/cesperon/Desktop/GT/nft-marketplace/src/contracts/ERC721.sol",
  "compiler": {
    "name": "solc",
    "version": "0.8.10+commit.fc410830.Emscripten.clang"
  },
  "schemaVersion": "3.4.3",
  "updatedAt": "2021-11-27T08:21:18.747Z",
  "devdoc": {
    "kind": "dev",
    "methods": {
      "balanceOf(address)": {
        "details": "NFTs assigned to the zero address are considered invalid, and this  function throws for queries about the zero address.",
        "params": {
          "_owner": "An address for whom to query the balance"
        },
        "returns": {
          "_0": "The number of NFTs owned by `_owner`, possibly zero"
        }
      },
      "ownerOf(uint256)": {
        "details": "NFTs assigned to zero address are considered invalid, and queries  about them do throw.",
        "params": {
          "_tokenId": "The identifier for an NFT"
        },
        "returns": {
          "_0": "The address of the owner of the NFT"
        }
      }
    },
    "version": 1
  },
  "userdoc": {
    "kind": "user",
    "methods": {
      "balanceOf(address)": {
        "notice": "Count all NFTs assigned to an owner"
      },
      "ownerOf(uint256)": {
        "notice": "Find the owner of an NFT"
      }
    },
    "version": 1
  }
}