{
  "contractName": "ERC721Metadata",
  "abi": [
    {
      "inputs": [
        {
          "internalType": "string",
          "name": "named",
          "type": "string"
        },
        {
          "internalType": "string",
          "name": "symbolified",
          "type": "string"
        },
        {
          "internalType": "uint256",
          "name": "identified",
          "type": "uint256"
        }
      ],
      "stateMutability": "nonpayable",
      "type": "constructor"
    },
    {
      "inputs": [],
      "name": "name",
      "outputs": [
        {
          "internalType": "string",
          "name": "",
          "type": "string"
        }
      ],
      "stateMutability": "view",
      "type": "function"
    },
    {
      "inputs": [],
      "name": "symbol",
      "outputs": [
        {
          "internalType": "string",
          "name": "",
          "type": "string"
        }
      ],
      "stateMutability": "view",
      "type": "function"
    },
    {
      "inputs": [],
      "name": "id",
      "outputs": [
        {
          "internalType": "uint256",
          "name": "",
          "type": "uint256"
        }
      ],
      "stateMutability": "view",
      "type": "function"
    }
  ],
  "bytecode": "0x608060405234801561001057600080fd5b50604051610715380380610715833981810160405281019061003291906102c6565b826000908051906020019061004892919061006f565b50816001908051906020019061005f92919061006f565b50806002819055505050506103b2565b82805461007b90610380565b90600052602060002090601f01602090048101928261009d57600085556100e4565b82601f106100b657805160ff19168380011785556100e4565b828001600101855582156100e4579182015b828111156100e35782518255916020019190600101906100c8565b5b5090506100f191906100f5565b5090565b5b8082111561010e5760008160009055506001016100f6565b5090565b6000604051905090565b600080fd5b600080fd5b600080fd5b600080fd5b6000601f19601f8301169050919050565b7f4e487b7100000000000000000000000000000000000000000000000000000000600052604160045260246000fd5b61017982610130565b810181811067ffffffffffffffff8211171561019857610197610141565b5b80604052505050565b60006101ab610112565b90506101b78282610170565b919050565b600067ffffffffffffffff8211156101d7576101d6610141565b5b6101e082610130565b9050602081019050919050565b60005b8381101561020b5780820151818401526020810190506101f0565b8381111561021a576000848401525b50505050565b600061023361022e846101bc565b6101a1565b90508281526020810184848401111561024f5761024e61012b565b5b61025a8482856101ed565b509392505050565b600082601f83011261027757610276610126565b5b8151610287848260208601610220565b91505092915050565b6000819050919050565b6102a381610290565b81146102ae57600080fd5b50565b6000815190506102c08161029a565b92915050565b6000806000606084860312156102df576102de61011c565b5b600084015167ffffffffffffffff8111156102fd576102fc610121565b5b61030986828701610262565b935050602084015167ffffffffffffffff81111561032a57610329610121565b5b61033686828701610262565b9250506040610347868287016102b1565b9150509250925092565b7f4e487b7100000000000000000000000000000000000000000000000000000000600052602260045260246000fd5b6000600282049050600182168061039857607f821691505b602082108114156103ac576103ab610351565b5b50919050565b610354806103c16000396000f3fe608060405234801561001057600080fd5b50600436106100415760003560e01c806306fdde031461004657806395d89b4114610064578063af640d0f14610082575b600080fd5b61004e6100a0565b60405161005b9190610267565b60405180910390f35b61006c610132565b6040516100799190610267565b60405180910390f35b61008a6101c4565b60405161009791906102a2565b60405180910390f35b6060600080546100af906102ec565b80601f01602080910402602001604051908101604052809291908181526020018280546100db906102ec565b80156101285780601f106100fd57610100808354040283529160200191610128565b820191906000526020600020905b81548152906001019060200180831161010b57829003601f168201915b5050505050905090565b606060018054610141906102ec565b80601f016020809104026020016040519081016040528092919081815260200182805461016d906102ec565b80156101ba5780601f1061018f576101008083540402835291602001916101ba565b820191906000526020600020905b81548152906001019060200180831161019d57829003601f168201915b5050505050905090565b6000600254905090565b600081519050919050565b600082825260208201905092915050565b60005b838110156102085780820151818401526020810190506101ed565b83811115610217576000848401525b50505050565b6000601f19601f8301169050919050565b6000610239826101ce565b61024381856101d9565b93506102538185602086016101ea565b61025c8161021d565b840191505092915050565b60006020820190508181036000830152610281818461022e565b905092915050565b6000819050919050565b61029c81610289565b82525050565b60006020820190506102b76000830184610293565b92915050565b7f4e487b7100000000000000000000000000000000000000000000000000000000600052602260045260246000fd5b6000600282049050600182168061030457607f821691505b60208210811415610318576103176102bd565b5b5091905056fea2646970667358221220808e32cb8c4910e6e1f33fd9c98cdf10359c04fbb855d21d0e77cb372718167264736f6c634300080a0033",
  "immutableReferences": {},
  "source": "// SPDX-License-Identifier: MIT\npragma solidity ^0.8.10;\n\ncontract ERC721Metadata {\n  //contract properties\n  string private _name;\n  string private _symbol;\n  uint256 private _id;\n\n  constructor(\n    string memory named,\n    string memory symbolified,\n    uint256 identified\n  ) {\n    _name = named;\n    _symbol = symbolified;\n    _id = identified;\n  }\n\n  //getters\n  function name() external view returns (string memory) {\n    return _name;\n  }\n\n  function symbol() external view returns (string memory) {\n    return _symbol;\n  }\n\n  function id() external view returns (uint256) {\n    return _id;\n  }\n}\n",
  "sourcePath": "/Users/cesperon/Desktop/HoopSpaceMarketPlace/nft-marketplace/src/contracts/ERC721Metadata.sol",
  "compiler": {
    "name": "solc",
    "version": "0.8.10+commit.fc410830.Emscripten.clang"
  },
  "schemaVersion": "3.4.3",
  "updatedAt": "2021-11-24T14:47:11.416Z",
  "devdoc": {
    "kind": "dev",
    "methods": {},
    "version": 1
  },
  "userdoc": {
    "kind": "user",
    "methods": {},
    "version": 1
  }
}