{
  "contractName": "ERC721Enumerable",
  "abi": [
    {
      "anonymous": false,
      "inputs": [
        {
          "indexed": true,
          "internalType": "address",
          "name": "contractAdress",
          "type": "address"
        },
        {
          "indexed": true,
          "internalType": "address",
          "name": "tokenOwner",
          "type": "address"
        },
        {
          "indexed": true,
          "internalType": "uint256",
          "name": "tokenId",
          "type": "uint256"
        }
      ],
      "name": "Transfer",
      "type": "event"
    },
    {
      "inputs": [
        {
          "internalType": "address",
          "name": "_owner",
          "type": "address"
        }
      ],
      "name": "balanceOf",
      "outputs": [
        {
          "internalType": "uint256",
          "name": "",
          "type": "uint256"
        }
      ],
      "stateMutability": "view",
      "type": "function"
    },
    {
      "inputs": [
        {
          "internalType": "uint256",
          "name": "_tokenId",
          "type": "uint256"
        }
      ],
      "name": "ownerOf",
      "outputs": [
        {
          "internalType": "address",
          "name": "",
          "type": "address"
        }
      ],
      "stateMutability": "view",
      "type": "function"
    },
    {
      "inputs": [],
      "name": "totalSupply",
      "outputs": [
        {
          "internalType": "uint256",
          "name": "",
          "type": "uint256"
        }
      ],
      "stateMutability": "view",
      "type": "function"
    },
    {
      "inputs": [
        {
          "internalType": "uint256",
          "name": "_index",
          "type": "uint256"
        }
      ],
      "name": "tokenByIndex",
      "outputs": [
        {
          "internalType": "uint256",
          "name": "",
          "type": "uint256"
        }
      ],
      "stateMutability": "view",
      "type": "function"
    },
    {
      "inputs": [
        {
          "internalType": "address",
          "name": "_owner",
          "type": "address"
        },
        {
          "internalType": "uint256",
          "name": "_index",
          "type": "uint256"
        }
      ],
      "name": "tokenOfOwnerByIndex",
      "outputs": [
        {
          "internalType": "uint256",
          "name": "",
          "type": "uint256"
        }
      ],
      "stateMutability": "view",
      "type": "function"
    }
  ],
  "bytecode": "0x608060405234801561001057600080fd5b5061083b806100206000396000f3fe608060405234801561001057600080fd5b50600436106100575760003560e01c806318160ddd1461005c5780632f745c591461007a5780634f6ccce7146100aa5780636352211e146100da57806370a082311461010a575b600080fd5b61006461013a565b60405161007191906104a7565b60405180910390f35b610094600480360381019061008f9190610551565b610147565b6040516100a191906104a7565b60405180910390f35b6100c460048036038101906100bf9190610591565b610275565b6040516100d191906104a7565b60405180910390f35b6100f460048036038101906100ef9190610591565b6102f3565b60405161010191906105cd565b60405180910390f35b610124600480360381019061011f91906105e8565b6103d3565b60405161013191906104a7565b60405180910390f35b6000600280549050905090565b6000816000811015801561015f575060028054905081105b61019e576040517f08c379a000000000000000000000000000000000000000000000000000000000815260040161019590610672565b60405180910390fd5b83600073ffffffffffffffffffffffffffffffffffffffff168173ffffffffffffffffffffffffffffffffffffffff16141561020f576040517f08c379a0000000000000000000000000000000000000000000000000000000008152600401610206906106de565b60405180910390fd5b600460008673ffffffffffffffffffffffffffffffffffffffff1673ffffffffffffffffffffffffffffffffffffffff16815260200190815260200160002084815481106102605761025f6106fe565b5b90600052602060002001549250505092915050565b6000816000811015801561028d575060028054905081105b6102cc576040517f08c379a00000000000000000000000000000000000000000000000000000000081526004016102c390610672565b60405180910390fd5b600283815481106102e0576102df6106fe565b5b9060005260206000200154915050919050565b600081600073ffffffffffffffffffffffffffffffffffffffff1660008083815260200190815260200160002060009054906101000a900473ffffffffffffffffffffffffffffffffffffffff1673ffffffffffffffffffffffffffffffffffffffff161415610398576040517f08c379a000000000000000000000000000000000000000000000000000000000815260040161038f90610779565b60405180910390fd5b60008084815260200190815260200160002060009054906101000a900473ffffffffffffffffffffffffffffffffffffffff16915050919050565b600081600073ffffffffffffffffffffffffffffffffffffffff168173ffffffffffffffffffffffffffffffffffffffff161415610446576040517f08c379a000000000000000000000000000000000000000000000000000000000815260040161043d906107e5565b60405180910390fd5b600160008473ffffffffffffffffffffffffffffffffffffffff1673ffffffffffffffffffffffffffffffffffffffff16815260200190815260200160002054915050919050565b6000819050919050565b6104a18161048e565b82525050565b60006020820190506104bc6000830184610498565b92915050565b600080fd5b600073ffffffffffffffffffffffffffffffffffffffff82169050919050565b60006104f2826104c7565b9050919050565b610502816104e7565b811461050d57600080fd5b50565b60008135905061051f816104f9565b92915050565b61052e8161048e565b811461053957600080fd5b50565b60008135905061054b81610525565b92915050565b60008060408385031215610568576105676104c2565b5b600061057685828601610510565b92505060206105878582860161053c565b9150509250929050565b6000602082840312156105a7576105a66104c2565b5b60006105b58482850161053c565b91505092915050565b6105c7816104e7565b82525050565b60006020820190506105e260008301846105be565b92915050565b6000602082840312156105fe576105fd6104c2565b5b600061060c84828501610510565b91505092915050565b600082825260208201905092915050565b7f746f6b656e20696e64657820696e76616c696400000000000000000000000000600082015250565b600061065c601383610615565b915061066782610626565b602082019050919050565b6000602082019050818103600083015261068b8161064f565b9050919050565b7f696e76616c696420616464726573730000000000000000000000000000000000600082015250565b60006106c8600f83610615565b91506106d382610692565b602082019050919050565b600060208201905081810360008301526106f7816106bb565b9050919050565b7f4e487b7100000000000000000000000000000000000000000000000000000000600052603260045260246000fd5b7f4e465420746f6b656e206973206e6f74206f776e656400000000000000000000600082015250565b6000610763601683610615565b915061076e8261072d565b602082019050919050565b6000602082019050818103600083015261079281610756565b9050919050565b7f4552433732313a206164647265737320646f65736e7420657869737400000000600082015250565b60006107cf601c83610615565b91506107da82610799565b602082019050919050565b600060208201905081810360008301526107fe816107c2565b905091905056fea2646970667358221220fee845e72cb3e6085e91ffe8f0c15973d67fa0ef6c33a74360ffbd029cc7c7ee64736f6c634300080a0033",
  "immutableReferences": {},
  "source": "// SPDX-License-Identifier: MIT\npragma solidity ^0.8.10;\n\nimport \"./ERC721.sol\";\n\ncontract ERC721Enumerable is ERC721 {\n  uint256[] private _allTokens;\n\n  // mapping from tokenId to position in _allTokens array\n  mapping(uint256 => uint256) private _allTokenIndex;\n\n  //mapping from owner to list of all owned token ids\n  mapping(address => uint256[]) private _ownedTokens;\n\n  // mapping from token ID to index of the owner tokens list\n  mapping(uint256 => uint256) private _ownedTokensIndex;\n\n  /// @notice Count NFTs tracked by this contract\n  /// @return A count of valid NFTs tracked by this contract, where each one of\n  ///  them has an assigned and queryable owner not equal to the zero address\n  function totalSupply() external view returns (uint256) {\n    return _allTokens.length;\n  }\n\n  modifier validAddress(address to) {\n    require(to != address(0), \"invalid address\");\n    _;\n  }\n  //   function validIndex() external view returns (uint256) {}\n\n  modifier tokenValidIndex(uint256 index) {\n    require(index >= 0 && index < _allTokens.length, \"token index invalid\");\n    _;\n  }\n\n  /// @notice Enumerate valid NFTs\n  /// @dev Throws if `_index` >= `totalSupply()`.\n  /// @param _index A counter less than `totalSupply()`\n  /// @return The token identifier for the `_index`th NFT,\n  ///  (sort order not specified)\n  function tokenByIndex(uint256 _index)\n    external\n    view\n    tokenValidIndex(_index)\n    returns (uint256)\n  {\n    //pass in index\n    //if index >= length || index < 0 then return error(\"Index out of bounds\")\n    //else\n    //return tokenId associate with index\n    return _allTokens[_index];\n  }\n\n  /// @notice Enumerate NFTs assigned to an owner\n  /// @dev Throws if `_index` >= `balanceOf(_owner)` or if\n  ///  `_owner` is the zero address, representing invalid NFTs.\n  /// @param _owner An address where we are interested in NFTs owned by them\n  /// @param _index A counter less than `balanceOf(_owner)`\n  /// @return The token identifier for the `_index`th NFT assigned to `_owner`,\n  ///   (sort order not specified)\n  function tokenOfOwnerByIndex(address _owner, uint256 _index)\n    external\n    view\n    tokenValidIndex(_index)\n    validAddress(_owner)\n    returns (uint256)\n  {\n    return _ownedTokens[_owner][_index];\n  }\n\n  function _mint(address to, uint256 tokenId) internal override(ERC721) {\n    super._mint(to, tokenId);\n    //1.add tokens to the owner\n    _ownedTokens[to].push(tokenId);\n    //2.add tokens to our total supply\n    _allTokens.push(tokenId);\n    //3. add token id to _owned tokens array that belonngs to user\n    _ownedTokensIndex[tokenId] = _ownedTokens[to].length - 1;\n  }\n}\n",
  "sourcePath": "/Users/cesperon/Desktop/GT/nft-marketplace/src/contracts/ERC721Enumerable.sol",
  "compiler": {
    "name": "solc",
    "version": "0.8.10+commit.fc410830.Emscripten.clang"
  },
  "schemaVersion": "3.4.3",
  "updatedAt": "2021-11-27T14:48:35.579Z",
  "devdoc": {
    "kind": "dev",
    "methods": {
      "balanceOf(address)": {
        "details": "NFTs assigned to the zero address are considered invalid, and this  function throws for queries about the zero address.",
        "params": {
          "_owner": "An address for whom to query the balance"
        },
        "returns": {
          "_0": "The number of NFTs owned by `_owner`, possibly zero"
        }
      },
      "ownerOf(uint256)": {
        "details": "NFTs assigned to zero address are considered invalid, and queries  about them do throw.",
        "params": {
          "_tokenId": "The identifier for an NFT"
        },
        "returns": {
          "_0": "The address of the owner of the NFT"
        }
      },
      "tokenByIndex(uint256)": {
        "details": "Throws if `_index` >= `totalSupply()`.",
        "params": {
          "_index": "A counter less than `totalSupply()`"
        },
        "returns": {
          "_0": "The token identifier for the `_index`th NFT,  (sort order not specified)"
        }
      },
      "tokenOfOwnerByIndex(address,uint256)": {
        "details": "Throws if `_index` >= `balanceOf(_owner)` or if  `_owner` is the zero address, representing invalid NFTs.",
        "params": {
          "_index": "A counter less than `balanceOf(_owner)`",
          "_owner": "An address where we are interested in NFTs owned by them"
        },
        "returns": {
          "_0": "The token identifier for the `_index`th NFT assigned to `_owner`,   (sort order not specified)"
        }
      },
      "totalSupply()": {
        "returns": {
          "_0": "A count of valid NFTs tracked by this contract, where each one of  them has an assigned and queryable owner not equal to the zero address"
        }
      }
    },
    "version": 1
  },
  "userdoc": {
    "kind": "user",
    "methods": {
      "balanceOf(address)": {
        "notice": "Count all NFTs assigned to an owner"
      },
      "ownerOf(uint256)": {
        "notice": "Find the owner of an NFT"
      },
      "tokenByIndex(uint256)": {
        "notice": "Enumerate valid NFTs"
      },
      "tokenOfOwnerByIndex(address,uint256)": {
        "notice": "Enumerate NFTs assigned to an owner"
      },
      "totalSupply()": {
        "notice": "Count NFTs tracked by this contract"
      }
    },
    "version": 1
  }
}