{
  "contractName": "HoopSpace",
  "abi": [
    {
      "inputs": [],
      "stateMutability": "nonpayable",
      "type": "constructor"
    },
    {
      "anonymous": false,
      "inputs": [
        {
          "indexed": true,
          "internalType": "address",
          "name": "contractAdress",
          "type": "address"
        },
        {
          "indexed": true,
          "internalType": "address",
          "name": "tokenOwner",
          "type": "address"
        },
        {
          "indexed": true,
          "internalType": "uint256",
          "name": "tokenId",
          "type": "uint256"
        }
      ],
      "name": "Transfer",
      "type": "event"
    },
    {
      "inputs": [
        {
          "internalType": "address",
          "name": "_owner",
          "type": "address"
        }
      ],
      "name": "balanceOf",
      "outputs": [
        {
          "internalType": "uint256",
          "name": "",
          "type": "uint256"
        }
      ],
      "stateMutability": "view",
      "type": "function",
      "constant": true
    },
    {
      "inputs": [
        {
          "internalType": "uint256",
          "name": "",
          "type": "uint256"
        }
      ],
      "name": "hoopNfts",
      "outputs": [
        {
          "internalType": "string",
          "name": "",
          "type": "string"
        }
      ],
      "stateMutability": "view",
      "type": "function",
      "constant": true
    },
    {
      "inputs": [],
      "name": "id",
      "outputs": [
        {
          "internalType": "uint256",
          "name": "",
          "type": "uint256"
        }
      ],
      "stateMutability": "view",
      "type": "function",
      "constant": true
    },
    {
      "inputs": [],
      "name": "name",
      "outputs": [
        {
          "internalType": "string",
          "name": "",
          "type": "string"
        }
      ],
      "stateMutability": "view",
      "type": "function",
      "constant": true
    },
    {
      "inputs": [
        {
          "internalType": "uint256",
          "name": "",
          "type": "uint256"
        }
      ],
      "name": "nftIds",
      "outputs": [
        {
          "internalType": "uint256",
          "name": "",
          "type": "uint256"
        }
      ],
      "stateMutability": "view",
      "type": "function",
      "constant": true
    },
    {
      "inputs": [
        {
          "internalType": "uint256",
          "name": "_tokenId",
          "type": "uint256"
        }
      ],
      "name": "ownerOf",
      "outputs": [
        {
          "internalType": "address",
          "name": "",
          "type": "address"
        }
      ],
      "stateMutability": "view",
      "type": "function",
      "constant": true
    },
    {
      "inputs": [],
      "name": "symbol",
      "outputs": [
        {
          "internalType": "string",
          "name": "",
          "type": "string"
        }
      ],
      "stateMutability": "view",
      "type": "function",
      "constant": true
    },
    {
      "inputs": [
        {
          "internalType": "uint256",
          "name": "_index",
          "type": "uint256"
        }
      ],
      "name": "tokenByIndex",
      "outputs": [
        {
          "internalType": "uint256",
          "name": "",
          "type": "uint256"
        }
      ],
      "stateMutability": "view",
      "type": "function",
      "constant": true
    },
    {
      "inputs": [
        {
          "internalType": "address",
          "name": "_owner",
          "type": "address"
        },
        {
          "internalType": "uint256",
          "name": "_index",
          "type": "uint256"
        }
      ],
      "name": "tokenOfOwnerByIndex",
      "outputs": [
        {
          "internalType": "uint256",
          "name": "",
          "type": "uint256"
        }
      ],
      "stateMutability": "view",
      "type": "function",
      "constant": true
    },
    {
      "inputs": [],
      "name": "totalSupply",
      "outputs": [
        {
          "internalType": "uint256",
          "name": "",
          "type": "uint256"
        }
      ],
      "stateMutability": "view",
      "type": "function",
      "constant": true
    },
    {
      "inputs": [
        {
          "internalType": "string",
          "name": "_hoopNft",
          "type": "string"
        }
      ],
      "name": "mint",
      "outputs": [],
      "stateMutability": "nonpayable",
      "type": "function"
    },
    {
      "inputs": [],
      "name": "showNfts",
      "outputs": [
        {
          "internalType": "string[]",
          "name": "",
          "type": "string[]"
        }
      ],
      "stateMutability": "view",
      "type": "function",
      "constant": true
    },
    {
      "inputs": [],
      "name": "showNftIds",
      "outputs": [
        {
          "internalType": "uint256[]",
          "name": "",
          "type": "uint256[]"
        }
      ],
      "stateMutability": "view",
      "type": "function",
      "constant": true
    }
  ],
  "bytecode": "0x60806040523480156200001157600080fd5b506040518060400160405280600981526020017f486f6f70537061636500000000000000000000000000000000000000000000008152506040518060400160405280600681526020017f4853504143450000000000000000000000000000000000000000000000000000815250600482828282600090805190602001906200009b929190620000c8565b508160019080519060200190620000b4929190620000c8565b5080600281905550505050505050620001dd565b828054620000d690620001a7565b90600052602060002090601f016020900481019282620000fa576000855562000146565b82601f106200011557805160ff191683800117855562000146565b8280016001018555821562000146579182015b828111156200014557825182559160200191906001019062000128565b5b50905062000155919062000159565b5090565b5b80821115620001745760008160009055506001016200015a565b5090565b7f4e487b7100000000000000000000000000000000000000000000000000000000600052602260045260246000fd5b60006002820490506001821680620001c057607f821691505b60208210811415620001d757620001d662000178565b5b50919050565b6118bd80620001ed6000396000f3fe608060405234801561001057600080fd5b50600436106100cf5760003560e01c806370a082311161008c578063af640d0f11610066578063af640d0f1461022a578063b4e510e514610248578063c6c9bd4714610278578063d85d3d27146102a8576100cf565b806370a08231146101be57806395d89b41146101ee5780639618557f1461020c576100cf565b806306fdde03146100d457806318160ddd146100f25780632f745c59146101105780634f6ccce71461014057806353f830fb146101705780636352211e1461018e575b600080fd5b6100dc6102c4565b6040516100e99190610ed3565b60405180910390f35b6100fa610356565b6040516101079190610f0e565b60405180910390f35b61012a60048036038101906101259190610fc7565b610363565b6040516101379190610f0e565b60405180910390f35b61015a60048036038101906101559190611007565b610491565b6040516101679190610f0e565b60405180910390f35b61017861050f565b6040516101859190611140565b60405180910390f35b6101a860048036038101906101a39190611007565b6105e8565b6040516101b59190611171565b60405180910390f35b6101d860048036038101906101d3919061118c565b6106ca565b6040516101e59190610f0e565b60405180910390f35b6101f6610785565b6040516102039190610ed3565b60405180910390f35b610214610817565b6040516102219190611277565b60405180910390f35b61023261086f565b60405161023f9190610f0e565b60405180910390f35b610262600480360381019061025d9190611007565b610879565b60405161026f9190610ed3565b60405180910390f35b610292600480360381019061028d9190611007565b610925565b60405161029f9190610f0e565b60405180910390f35b6102c260048036038101906102bd91906113ce565b610949565b005b6060600080546102d390611446565b80601f01602080910402602001604051908101604052809291908181526020018280546102ff90611446565b801561034c5780601f106103215761010080835404028352916020019161034c565b820191906000526020600020905b81548152906001019060200180831161032f57829003601f168201915b5050505050905090565b6000600580549050905090565b6000816000811015801561037b575060058054905081105b6103ba576040517f08c379a00000000000000000000000000000000000000000000000000000000081526004016103b1906114c4565b60405180910390fd5b83600073ffffffffffffffffffffffffffffffffffffffff168173ffffffffffffffffffffffffffffffffffffffff16141561042b576040517f08c379a000000000000000000000000000000000000000000000000000000000815260040161042290611530565b60405180910390fd5b600760008673ffffffffffffffffffffffffffffffffffffffff1673ffffffffffffffffffffffffffffffffffffffff168152602001908152602001600020848154811061047c5761047b611550565b5b90600052602060002001549250505092915050565b600081600081101580156104a9575060058054905081105b6104e8576040517f08c379a00000000000000000000000000000000000000000000000000000000081526004016104df906114c4565b60405180910390fd5b600583815481106104fc576104fb611550565b5b9060005260206000200154915050919050565b60606009805480602002602001604051908101604052809291908181526020016000905b828210156105df57838290600052602060002001805461055290611446565b80601f016020809104026020016040519081016040528092919081815260200182805461057e90611446565b80156105cb5780601f106105a0576101008083540402835291602001916105cb565b820191906000526020600020905b8154815290600101906020018083116105ae57829003601f168201915b505050505081526020019060010190610533565b50505050905090565b600081600073ffffffffffffffffffffffffffffffffffffffff166003600083815260200190815260200160002060009054906101000a900473ffffffffffffffffffffffffffffffffffffffff1673ffffffffffffffffffffffffffffffffffffffff16141561068e576040517f08c379a0000000000000000000000000000000000000000000000000000000008152600401610685906115cb565b60405180910390fd5b6003600084815260200190815260200160002060009054906101000a900473ffffffffffffffffffffffffffffffffffffffff16915050919050565b600081600073ffffffffffffffffffffffffffffffffffffffff168173ffffffffffffffffffffffffffffffffffffffff16141561073d576040517f08c379a000000000000000000000000000000000000000000000000000000000815260040161073490611637565b60405180910390fd5b600460008473ffffffffffffffffffffffffffffffffffffffff1673ffffffffffffffffffffffffffffffffffffffff16815260200190815260200160002054915050919050565b60606001805461079490611446565b80601f01602080910402602001604051908101604052809291908181526020018280546107c090611446565b801561080d5780601f106107e25761010080835404028352916020019161080d565b820191906000526020600020905b8154815290600101906020018083116107f057829003601f168201915b5050505050905090565b6060600a80548060200260200160405190810160405280929190818152602001828054801561086557602002820191906000526020600020905b815481526020019060010190808311610851575b5050505050905090565b6000600254905090565b6009818154811061088957600080fd5b9060005260206000200160009150905080546108a490611446565b80601f01602080910402602001604051908101604052809291908181526020018280546108d090611446565b801561091d5780601f106108f25761010080835404028352916020019161091d565b820191906000526020600020905b81548152906001019060200180831161090057829003601f168201915b505050505081565b600a818154811061093557600080fd5b906000526020600020016000915090505481565b600b816040516109599190611693565b908152602001604051809103902060009054906101000a900460ff16156109b5576040517f08c379a00000000000000000000000000000000000000000000000000000000081526004016109ac9061171c565b60405180910390fd5b6009819080600181540180825580915050600190039060005260206000200160009091909190915090805190602001906109f0929190610d97565b5060006001600980549050610a05919061176b565b9050600a819080600181540180825580915050600190039060005260206000200160009091909190915055610a3a3382610a75565b6001600b83604051610a4c9190611693565b908152602001604051809103902060006101000a81548160ff0219169083151502179055505050565b610a7f8282610b78565b600760008373ffffffffffffffffffffffffffffffffffffffff1673ffffffffffffffffffffffffffffffffffffffff16815260200190815260200160002081908060018154018082558091505060019003906000526020600020016000909190919091505560058190806001815401808255809150506001900390600052602060002001600090919091909150556001600760008473ffffffffffffffffffffffffffffffffffffffff1673ffffffffffffffffffffffffffffffffffffffff16815260200190815260200160002080549050610b5d919061176b565b60086000838152602001908152602001600020819055505050565b81600073ffffffffffffffffffffffffffffffffffffffff168173ffffffffffffffffffffffffffffffffffffffff161415610be9576040517f08c379a0000000000000000000000000000000000000000000000000000000008152600401610be090611637565b60405180910390fd5b81600073ffffffffffffffffffffffffffffffffffffffff166003600083815260200190815260200160002060009054906101000a900473ffffffffffffffffffffffffffffffffffffffff1673ffffffffffffffffffffffffffffffffffffffff1614610c8c576040517f08c379a0000000000000000000000000000000000000000000000000000000008152600401610c8390611811565b60405180910390fd5b836003600085815260200190815260200160002060006101000a81548173ffffffffffffffffffffffffffffffffffffffff021916908373ffffffffffffffffffffffffffffffffffffffff1602179055506001600460008673ffffffffffffffffffffffffffffffffffffffff1673ffffffffffffffffffffffffffffffffffffffff1681526020019081526020016000206000828254610d2e9190611831565b92505081905550828473ffffffffffffffffffffffffffffffffffffffff16600073ffffffffffffffffffffffffffffffffffffffff167fddf252ad1be2c89b69c2b068fc378daa952ba7f163c4a11628f55a4df523b3ef60405160405180910390a450505050565b828054610da390611446565b90600052602060002090601f016020900481019282610dc55760008555610e0c565b82601f10610dde57805160ff1916838001178555610e0c565b82800160010185558215610e0c579182015b82811115610e0b578251825591602001919060010190610df0565b5b509050610e199190610e1d565b5090565b5b80821115610e36576000816000905550600101610e1e565b5090565b600081519050919050565b600082825260208201905092915050565b60005b83811015610e74578082015181840152602081019050610e59565b83811115610e83576000848401525b50505050565b6000601f19601f8301169050919050565b6000610ea582610e3a565b610eaf8185610e45565b9350610ebf818560208601610e56565b610ec881610e89565b840191505092915050565b60006020820190508181036000830152610eed8184610e9a565b905092915050565b6000819050919050565b610f0881610ef5565b82525050565b6000602082019050610f236000830184610eff565b92915050565b6000604051905090565b600080fd5b600080fd5b600073ffffffffffffffffffffffffffffffffffffffff82169050919050565b6000610f6882610f3d565b9050919050565b610f7881610f5d565b8114610f8357600080fd5b50565b600081359050610f9581610f6f565b92915050565b610fa481610ef5565b8114610faf57600080fd5b50565b600081359050610fc181610f9b565b92915050565b60008060408385031215610fde57610fdd610f33565b5b6000610fec85828601610f86565b9250506020610ffd85828601610fb2565b9150509250929050565b60006020828403121561101d5761101c610f33565b5b600061102b84828501610fb2565b91505092915050565b600081519050919050565b600082825260208201905092915050565b6000819050602082019050919050565b600082825260208201905092915050565b600061107c82610e3a565b6110868185611060565b9350611096818560208601610e56565b61109f81610e89565b840191505092915050565b60006110b68383611071565b905092915050565b6000602082019050919050565b60006110d682611034565b6110e0818561103f565b9350836020820285016110f285611050565b8060005b8581101561112e578484038952815161110f85826110aa565b945061111a836110be565b925060208a019950506001810190506110f6565b50829750879550505050505092915050565b6000602082019050818103600083015261115a81846110cb565b905092915050565b61116b81610f5d565b82525050565b60006020820190506111866000830184611162565b92915050565b6000602082840312156111a2576111a1610f33565b5b60006111b084828501610f86565b91505092915050565b600081519050919050565b600082825260208201905092915050565b6000819050602082019050919050565b6111ee81610ef5565b82525050565b600061120083836111e5565b60208301905092915050565b6000602082019050919050565b6000611224826111b9565b61122e81856111c4565b9350611239836111d5565b8060005b8381101561126a57815161125188826111f4565b975061125c8361120c565b92505060018101905061123d565b5085935050505092915050565b600060208201905081810360008301526112918184611219565b905092915050565b600080fd5b600080fd5b7f4e487b7100000000000000000000000000000000000000000000000000000000600052604160045260246000fd5b6112db82610e89565b810181811067ffffffffffffffff821117156112fa576112f96112a3565b5b80604052505050565b600061130d610f29565b905061131982826112d2565b919050565b600067ffffffffffffffff821115611339576113386112a3565b5b61134282610e89565b9050602081019050919050565b82818337600083830152505050565b600061137161136c8461131e565b611303565b90508281526020810184848401111561138d5761138c61129e565b5b61139884828561134f565b509392505050565b600082601f8301126113b5576113b4611299565b5b81356113c584826020860161135e565b91505092915050565b6000602082840312156113e4576113e3610f33565b5b600082013567ffffffffffffffff81111561140257611401610f38565b5b61140e848285016113a0565b91505092915050565b7f4e487b7100000000000000000000000000000000000000000000000000000000600052602260045260246000fd5b6000600282049050600182168061145e57607f821691505b6020821081141561147257611471611417565b5b50919050565b7f746f6b656e20696e64657820696e76616c696400000000000000000000000000600082015250565b60006114ae601383610e45565b91506114b982611478565b602082019050919050565b600060208201905081810360008301526114dd816114a1565b9050919050565b7f696e76616c696420616464726573730000000000000000000000000000000000600082015250565b600061151a600f83610e45565b9150611525826114e4565b602082019050919050565b600060208201905081810360008301526115498161150d565b9050919050565b7f4e487b7100000000000000000000000000000000000000000000000000000000600052603260045260246000fd5b7f4e465420746f6b656e206973206e6f74206f776e656400000000000000000000600082015250565b60006115b5601683610e45565b91506115c08261157f565b602082019050919050565b600060208201905081810360008301526115e4816115a8565b9050919050565b7f4552433732313a206164647265737320646f65736e7420657869737400000000600082015250565b6000611621601c83610e45565b915061162c826115eb565b602082019050919050565b6000602082019050818103600083015261165081611614565b9050919050565b600081905092915050565b600061166d82610e3a565b6116778185611657565b9350611687818560208601610e56565b80840191505092915050565b600061169f8284611662565b915081905092915050565b7f4572726f7220686f6f705370616365206e667420697320616c7265616479206f60008201527f776e656400000000000000000000000000000000000000000000000000000000602082015250565b6000611706602483610e45565b9150611711826116aa565b604082019050919050565b60006020820190508181036000830152611735816116f9565b9050919050565b7f4e487b7100000000000000000000000000000000000000000000000000000000600052601160045260246000fd5b600061177682610ef5565b915061178183610ef5565b9250828210156117945761179361173c565b5b828203905092915050565b7f546869732066756e6374696f6e2069732072657175697265732074686174207460008201527f6f6b656e494420686173206e6f74206265656e206d696e746564000000000000602082015250565b60006117fb603a83610e45565b91506118068261179f565b604082019050919050565b6000602082019050818103600083015261182a816117ee565b9050919050565b600061183c82610ef5565b915061184783610ef5565b9250827fffffffffffffffffffffffffffffffffffffffffffffffffffffffffffffffff0382111561187c5761187b61173c565b5b82820190509291505056fea26469706673582212208b0955f9cdd7e25997cf9467ea3ac76b02f0bbb811db0fac2c0f0cae0294513d64736f6c634300080a0033",
  "immutableReferences": {},
  "source": "// SPDX-License-Identifier: MIT\npragma solidity ^0.8.10;\nimport \"./ERC721Connector.sol\";\n\ncontract HoopSpace is ERC721Connector {\n  //store nfts in array\n  string[] public hoopNfts;\n\n  //debug i\n  uint256[] public nftIds;\n\n  mapping(string => bool) hoopNftExists;\n\n  function mint(string memory _hoopNft) public {\n    require(!hoopNftExists[_hoopNft], \"Error hoopSpace nft is already owned\");\n    //push nft to nfts array\n    hoopNfts.push(_hoopNft);\n    //create id for erc721 minting function using the index of HoopNfts\n    uint256 tokenId = hoopNfts.length - 1;\n    //debug\n    nftIds.push(tokenId);\n    _mint(msg.sender, tokenId);\n    hoopNftExists[_hoopNft] = true;\n  }\n\n  function showNfts() public view returns (string[] memory) {\n    return hoopNfts;\n  }\n\n  function showNftIds() public view returns (uint256[] memory) {\n    return nftIds;\n  }\n\n  constructor() ERC721Connector(\"HoopSpace\", \"HSPACE\", 4) {}\n}\n",
  "sourcePath": "/Users/cesperon/Desktop/GT/nft-marketplace/src/contracts/HoopSpace.sol",
  "compiler": {
    "name": "solc",
    "version": "0.8.10+commit.fc410830.Emscripten.clang"
  },
  "schemaVersion": "3.4.3",
  "updatedAt": "2021-11-27T14:48:49.652Z",
  "networkType": "ethereum",
  "devdoc": {
    "kind": "dev",
    "methods": {
      "balanceOf(address)": {
        "details": "NFTs assigned to the zero address are considered invalid, and this  function throws for queries about the zero address.",
        "params": {
          "_owner": "An address for whom to query the balance"
        },
        "returns": {
          "_0": "The number of NFTs owned by `_owner`, possibly zero"
        }
      },
      "ownerOf(uint256)": {
        "details": "NFTs assigned to zero address are considered invalid, and queries  about them do throw.",
        "params": {
          "_tokenId": "The identifier for an NFT"
        },
        "returns": {
          "_0": "The address of the owner of the NFT"
        }
      },
      "tokenByIndex(uint256)": {
        "details": "Throws if `_index` >= `totalSupply()`.",
        "params": {
          "_index": "A counter less than `totalSupply()`"
        },
        "returns": {
          "_0": "The token identifier for the `_index`th NFT,  (sort order not specified)"
        }
      },
      "tokenOfOwnerByIndex(address,uint256)": {
        "details": "Throws if `_index` >= `balanceOf(_owner)` or if  `_owner` is the zero address, representing invalid NFTs.",
        "params": {
          "_index": "A counter less than `balanceOf(_owner)`",
          "_owner": "An address where we are interested in NFTs owned by them"
        },
        "returns": {
          "_0": "The token identifier for the `_index`th NFT assigned to `_owner`,   (sort order not specified)"
        }
      },
      "totalSupply()": {
        "returns": {
          "_0": "A count of valid NFTs tracked by this contract, where each one of  them has an assigned and queryable owner not equal to the zero address"
        }
      }
    },
    "version": 1
  },
  "userdoc": {
    "kind": "user",
    "methods": {
      "balanceOf(address)": {
        "notice": "Count all NFTs assigned to an owner"
      },
      "ownerOf(uint256)": {
        "notice": "Find the owner of an NFT"
      },
      "tokenByIndex(uint256)": {
        "notice": "Enumerate valid NFTs"
      },
      "tokenOfOwnerByIndex(address,uint256)": {
        "notice": "Enumerate NFTs assigned to an owner"
      },
      "totalSupply()": {
        "notice": "Count NFTs tracked by this contract"
      }
    },
    "version": 1
  }
}