{
  "contractName": "HoopSpace",
  "abi": [
    {
      "inputs": [],
      "stateMutability": "nonpayable",
      "type": "constructor"
    },
    {
      "inputs": [],
      "name": "id",
      "outputs": [
        {
          "internalType": "uint256",
          "name": "",
          "type": "uint256"
        }
      ],
      "stateMutability": "view",
      "type": "function",
      "constant": true
    },
    {
      "inputs": [],
      "name": "name",
      "outputs": [
        {
          "internalType": "string",
          "name": "",
          "type": "string"
        }
      ],
      "stateMutability": "view",
      "type": "function",
      "constant": true
    },
    {
      "inputs": [],
      "name": "symbol",
      "outputs": [
        {
          "internalType": "string",
          "name": "",
          "type": "string"
        }
      ],
      "stateMutability": "view",
      "type": "function",
      "constant": true
    }
  ],
  "bytecode": "0x608060405234801561001057600080fd5b506040518060400160405280600981526020017f486f6f70537061636500000000000000000000000000000000000000000000008152506040518060400160405280600681526020017f4853504143450000000000000000000000000000000000000000000000000000815250600482828282600090805190602001906100989291906100c2565b5081600190805190602001906100af9291906100c2565b50806002819055505050505050506101c6565b8280546100ce90610194565b90600052602060002090601f0160209004810192826100f05760008555610137565b82601f1061010957805160ff1916838001178555610137565b82800160010185558215610137579182015b8281111561013657825182559160200191906001019061011b565b5b5090506101449190610148565b5090565b5b80821115610161576000816000905550600101610149565b5090565b7f4e487b7100000000000000000000000000000000000000000000000000000000600052602260045260246000fd5b600060028204905060018216806101ac57607f821691505b602082108114156101c0576101bf610165565b5b50919050565b610354806101d56000396000f3fe608060405234801561001057600080fd5b50600436106100415760003560e01c806306fdde031461004657806395d89b4114610064578063af640d0f14610082575b600080fd5b61004e6100a0565b60405161005b9190610267565b60405180910390f35b61006c610132565b6040516100799190610267565b60405180910390f35b61008a6101c4565b60405161009791906102a2565b60405180910390f35b6060600080546100af906102ec565b80601f01602080910402602001604051908101604052809291908181526020018280546100db906102ec565b80156101285780601f106100fd57610100808354040283529160200191610128565b820191906000526020600020905b81548152906001019060200180831161010b57829003601f168201915b5050505050905090565b606060018054610141906102ec565b80601f016020809104026020016040519081016040528092919081815260200182805461016d906102ec565b80156101ba5780601f1061018f576101008083540402835291602001916101ba565b820191906000526020600020905b81548152906001019060200180831161019d57829003601f168201915b5050505050905090565b6000600254905090565b600081519050919050565b600082825260208201905092915050565b60005b838110156102085780820151818401526020810190506101ed565b83811115610217576000848401525b50505050565b6000601f19601f8301169050919050565b6000610239826101ce565b61024381856101d9565b93506102538185602086016101ea565b61025c8161021d565b840191505092915050565b60006020820190508181036000830152610281818461022e565b905092915050565b6000819050919050565b61029c81610289565b82525050565b60006020820190506102b76000830184610293565b92915050565b7f4e487b7100000000000000000000000000000000000000000000000000000000600052602260045260246000fd5b6000600282049050600182168061030457607f821691505b60208210811415610318576103176102bd565b5b5091905056fea2646970667358221220817ba746997623489bf508fe5c15ffa71a55a7e31d9c756c4b095bab96ac27c464736f6c634300080a0033",
  "immutableReferences": {},
  "source": "// SPDX-License-Identifier: MIT\npragma solidity ^0.8.10;\nimport \"./ERC721Connector.sol\";\n\ncontract HoopSpace is ERC721Connector {\n  constructor() ERC721Connector(\"HoopSpace\", \"HSPACE\", 4) {}\n}\n",
  "sourcePath": "/Users/cesperon/Desktop/HoopSpaceMarketPlace/nft-marketplace/src/contracts/HoopSpace.sol",
  "compiler": {
    "name": "solc",
    "version": "0.8.10+commit.fc410830.Emscripten.clang"
  },
  "schemaVersion": "3.4.3",
  "updatedAt": "2021-11-24T14:47:24.460Z",
  "networkType": "ethereum",
  "devdoc": {
    "kind": "dev",
    "methods": {},
    "version": 1
  },
  "userdoc": {
    "kind": "user",
    "methods": {},
    "version": 1
  }
}