{
  "contractName": "HoopSpace",
  "abi": [
    {
      "inputs": [],
      "stateMutability": "nonpayable",
      "type": "constructor"
    },
    {
      "anonymous": false,
      "inputs": [
        {
          "indexed": true,
          "internalType": "address",
          "name": "contractAdress",
          "type": "address"
        },
        {
          "indexed": true,
          "internalType": "address",
          "name": "tokenOwner",
          "type": "address"
        },
        {
          "indexed": true,
          "internalType": "uint256",
          "name": "tokenId",
          "type": "uint256"
        }
      ],
      "name": "Transfer",
      "type": "event"
    },
    {
      "inputs": [
        {
          "internalType": "address",
          "name": "_owner",
          "type": "address"
        }
      ],
      "name": "balanceOf",
      "outputs": [
        {
          "internalType": "uint256",
          "name": "",
          "type": "uint256"
        }
      ],
      "stateMutability": "view",
      "type": "function",
      "constant": true
    },
    {
      "inputs": [
        {
          "internalType": "uint256",
          "name": "",
          "type": "uint256"
        }
      ],
      "name": "hoopNfts",
      "outputs": [
        {
          "internalType": "string",
          "name": "",
          "type": "string"
        }
      ],
      "stateMutability": "view",
      "type": "function",
      "constant": true
    },
    {
      "inputs": [],
      "name": "id",
      "outputs": [
        {
          "internalType": "uint256",
          "name": "",
          "type": "uint256"
        }
      ],
      "stateMutability": "view",
      "type": "function",
      "constant": true
    },
    {
      "inputs": [],
      "name": "name",
      "outputs": [
        {
          "internalType": "string",
          "name": "",
          "type": "string"
        }
      ],
      "stateMutability": "view",
      "type": "function",
      "constant": true
    },
    {
      "inputs": [
        {
          "internalType": "uint256",
          "name": "",
          "type": "uint256"
        }
      ],
      "name": "nftIds",
      "outputs": [
        {
          "internalType": "uint256",
          "name": "",
          "type": "uint256"
        }
      ],
      "stateMutability": "view",
      "type": "function",
      "constant": true
    },
    {
      "inputs": [
        {
          "internalType": "uint256",
          "name": "_tokenId",
          "type": "uint256"
        }
      ],
      "name": "ownerOf",
      "outputs": [
        {
          "internalType": "address",
          "name": "",
          "type": "address"
        }
      ],
      "stateMutability": "view",
      "type": "function",
      "constant": true
    },
    {
      "inputs": [],
      "name": "symbol",
      "outputs": [
        {
          "internalType": "string",
          "name": "",
          "type": "string"
        }
      ],
      "stateMutability": "view",
      "type": "function",
      "constant": true
    },
    {
      "inputs": [
        {
          "internalType": "uint256",
          "name": "_index",
          "type": "uint256"
        }
      ],
      "name": "tokenByIndex",
      "outputs": [
        {
          "internalType": "uint256",
          "name": "",
          "type": "uint256"
        }
      ],
      "stateMutability": "view",
      "type": "function",
      "constant": true
    },
    {
      "inputs": [
        {
          "internalType": "address",
          "name": "_owner",
          "type": "address"
        },
        {
          "internalType": "uint256",
          "name": "_index",
          "type": "uint256"
        }
      ],
      "name": "tokenOfOwnerByIndex",
      "outputs": [
        {
          "internalType": "uint256",
          "name": "",
          "type": "uint256"
        }
      ],
      "stateMutability": "view",
      "type": "function",
      "constant": true
    },
    {
      "inputs": [],
      "name": "totalSupply",
      "outputs": [
        {
          "internalType": "uint256",
          "name": "",
          "type": "uint256"
        }
      ],
      "stateMutability": "view",
      "type": "function",
      "constant": true
    },
    {
      "inputs": [
        {
          "internalType": "string",
          "name": "_hoopNft",
          "type": "string"
        }
      ],
      "name": "mint",
      "outputs": [],
      "stateMutability": "nonpayable",
      "type": "function"
    },
    {
      "inputs": [],
      "name": "showNfts",
      "outputs": [
        {
          "internalType": "string[]",
          "name": "",
          "type": "string[]"
        }
      ],
      "stateMutability": "view",
      "type": "function",
      "constant": true
    },
    {
      "inputs": [],
      "name": "showNftIds",
      "outputs": [
        {
          "internalType": "uint256[]",
          "name": "",
          "type": "uint256[]"
        }
      ],
      "stateMutability": "view",
      "type": "function",
      "constant": true
    }
  ],
  "bytecode": "0x60806040523480156200001157600080fd5b506040518060400160405280600981526020017f486f6f70537061636500000000000000000000000000000000000000000000008152506040518060400160405280600681526020017f4853504143450000000000000000000000000000000000000000000000000000815250600482828282600090805190602001906200009b929190620000c8565b508160019080519060200190620000b4929190620000c8565b5080600281905550505050505050620001dd565b828054620000d690620001a7565b90600052602060002090601f016020900481019282620000fa576000855562000146565b82601f106200011557805160ff191683800117855562000146565b8280016001018555821562000146579182015b828111156200014557825182559160200191906001019062000128565b5b50905062000155919062000159565b5090565b5b80821115620001745760008160009055506001016200015a565b5090565b7f4e487b7100000000000000000000000000000000000000000000000000000000600052602260045260246000fd5b60006002820490506001821680620001c057607f821691505b60208210811415620001d757620001d662000178565b5b50919050565b61192180620001ed6000396000f3fe608060405234801561001057600080fd5b50600436106100cf5760003560e01c806370a082311161008c578063af640d0f11610066578063af640d0f1461022a578063b4e510e514610248578063c6c9bd4714610278578063d85d3d27146102a8576100cf565b806370a08231146101be57806395d89b41146101ee5780639618557f1461020c576100cf565b806306fdde03146100d457806318160ddd146100f25780632f745c59146101105780634f6ccce71461014057806353f830fb146101705780636352211e1461018e575b600080fd5b6100dc6102c4565b6040516100e99190610ecb565b60405180910390f35b6100fa610356565b6040516101079190610f06565b60405180910390f35b61012a60048036038101906101259190610fbf565b610363565b6040516101379190610f06565b60405180910390f35b61015a60048036038101906101559190610fff565b610489565b6040516101679190610f06565b60405180910390f35b610178610507565b6040516101859190611138565b60405180910390f35b6101a860048036038101906101a39190610fff565b6105e0565b6040516101b59190611169565b60405180910390f35b6101d860048036038101906101d39190611184565b6106c2565b6040516101e59190610f06565b60405180910390f35b6101f661077d565b6040516102039190610ecb565b60405180910390f35b61021461080f565b604051610221919061126f565b60405180910390f35b610232610867565b60405161023f9190610f06565b60405180910390f35b610262600480360381019061025d9190610fff565b610871565b60405161026f9190610ecb565b60405180910390f35b610292600480360381019061028d9190610fff565b61091d565b60405161029f9190610f06565b60405180910390f35b6102c260048036038101906102bd91906113c6565b610941565b005b6060600080546102d39061143e565b80601f01602080910402602001604051908101604052809291908181526020018280546102ff9061143e565b801561034c5780601f106103215761010080835404028352916020019161034c565b820191906000526020600020905b81548152906001019060200180831161032f57829003601f168201915b5050505050905090565b6000600580549050905090565b60008282610370826106c2565b81106103b1576040517f08c379a00000000000000000000000000000000000000000000000000000000081526004016103a8906114bc565b60405180910390fd5b84600073ffffffffffffffffffffffffffffffffffffffff168173ffffffffffffffffffffffffffffffffffffffff161415610422576040517f08c379a000000000000000000000000000000000000000000000000000000000815260040161041990611528565b60405180910390fd5b600760008773ffffffffffffffffffffffffffffffffffffffff1673ffffffffffffffffffffffffffffffffffffffff168152602001908152602001600020858154811061047357610472611548565b5b9060005260206000200154935050505092915050565b600081600081101580156104a1575060058054905081105b6104e0576040517f08c379a00000000000000000000000000000000000000000000000000000000081526004016104d7906115c3565b60405180910390fd5b600583815481106104f4576104f3611548565b5b9060005260206000200154915050919050565b60606009805480602002602001604051908101604052809291908181526020016000905b828210156105d757838290600052602060002001805461054a9061143e565b80601f01602080910402602001604051908101604052809291908181526020018280546105769061143e565b80156105c35780601f10610598576101008083540402835291602001916105c3565b820191906000526020600020905b8154815290600101906020018083116105a657829003601f168201915b50505050508152602001906001019061052b565b50505050905090565b600081600073ffffffffffffffffffffffffffffffffffffffff166003600083815260200190815260200160002060009054906101000a900473ffffffffffffffffffffffffffffffffffffffff1673ffffffffffffffffffffffffffffffffffffffff161415610686576040517f08c379a000000000000000000000000000000000000000000000000000000000815260040161067d9061162f565b60405180910390fd5b6003600084815260200190815260200160002060009054906101000a900473ffffffffffffffffffffffffffffffffffffffff16915050919050565b600081600073ffffffffffffffffffffffffffffffffffffffff168173ffffffffffffffffffffffffffffffffffffffff161415610735576040517f08c379a000000000000000000000000000000000000000000000000000000000815260040161072c9061169b565b60405180910390fd5b600460008473ffffffffffffffffffffffffffffffffffffffff1673ffffffffffffffffffffffffffffffffffffffff16815260200190815260200160002054915050919050565b60606001805461078c9061143e565b80601f01602080910402602001604051908101604052809291908181526020018280546107b89061143e565b80156108055780601f106107da57610100808354040283529160200191610805565b820191906000526020600020905b8154815290600101906020018083116107e857829003601f168201915b5050505050905090565b6060600a80548060200260200160405190810160405280929190818152602001828054801561085d57602002820191906000526020600020905b815481526020019060010190808311610849575b5050505050905090565b6000600254905090565b6009818154811061088157600080fd5b90600052602060002001600091509050805461089c9061143e565b80601f01602080910402602001604051908101604052809291908181526020018280546108c89061143e565b80156109155780601f106108ea57610100808354040283529160200191610915565b820191906000526020600020905b8154815290600101906020018083116108f857829003601f168201915b505050505081565b600a818154811061092d57600080fd5b906000526020600020016000915090505481565b600b8160405161095191906116f7565b908152602001604051809103902060009054906101000a900460ff16156109ad576040517f08c379a00000000000000000000000000000000000000000000000000000000081526004016109a490611780565b60405180910390fd5b6009819080600181540180825580915050600190039060005260206000200160009091909190915090805190602001906109e8929190610d8f565b50600060016009805490506109fd91906117cf565b9050600a819080600181540180825580915050600190039060005260206000200160009091909190915055610a323382610a6d565b6001600b83604051610a4491906116f7565b908152602001604051809103902060006101000a81548160ff0219169083151502179055505050565b610a778282610b70565b600760008373ffffffffffffffffffffffffffffffffffffffff1673ffffffffffffffffffffffffffffffffffffffff16815260200190815260200160002081908060018154018082558091505060019003906000526020600020016000909190919091505560058190806001815401808255809150506001900390600052602060002001600090919091909150556001600760008473ffffffffffffffffffffffffffffffffffffffff1673ffffffffffffffffffffffffffffffffffffffff16815260200190815260200160002080549050610b5591906117cf565b60086000838152602001908152602001600020819055505050565b81600073ffffffffffffffffffffffffffffffffffffffff168173ffffffffffffffffffffffffffffffffffffffff161415610be1576040517f08c379a0000000000000000000000000000000000000000000000000000000008152600401610bd89061169b565b60405180910390fd5b81600073ffffffffffffffffffffffffffffffffffffffff166003600083815260200190815260200160002060009054906101000a900473ffffffffffffffffffffffffffffffffffffffff1673ffffffffffffffffffffffffffffffffffffffff1614610c84576040517f08c379a0000000000000000000000000000000000000000000000000000000008152600401610c7b90611875565b60405180910390fd5b836003600085815260200190815260200160002060006101000a81548173ffffffffffffffffffffffffffffffffffffffff021916908373ffffffffffffffffffffffffffffffffffffffff1602179055506001600460008673ffffffffffffffffffffffffffffffffffffffff1673ffffffffffffffffffffffffffffffffffffffff1681526020019081526020016000206000828254610d269190611895565b92505081905550828473ffffffffffffffffffffffffffffffffffffffff16600073ffffffffffffffffffffffffffffffffffffffff167fddf252ad1be2c89b69c2b068fc378daa952ba7f163c4a11628f55a4df523b3ef60405160405180910390a450505050565b828054610d9b9061143e565b90600052602060002090601f016020900481019282610dbd5760008555610e04565b82601f10610dd657805160ff1916838001178555610e04565b82800160010185558215610e04579182015b82811115610e03578251825591602001919060010190610de8565b5b509050610e119190610e15565b5090565b5b80821115610e2e576000816000905550600101610e16565b5090565b600081519050919050565b600082825260208201905092915050565b60005b83811015610e6c578082015181840152602081019050610e51565b83811115610e7b576000848401525b50505050565b6000601f19601f8301169050919050565b6000610e9d82610e32565b610ea78185610e3d565b9350610eb7818560208601610e4e565b610ec081610e81565b840191505092915050565b60006020820190508181036000830152610ee58184610e92565b905092915050565b6000819050919050565b610f0081610eed565b82525050565b6000602082019050610f1b6000830184610ef7565b92915050565b6000604051905090565b600080fd5b600080fd5b600073ffffffffffffffffffffffffffffffffffffffff82169050919050565b6000610f6082610f35565b9050919050565b610f7081610f55565b8114610f7b57600080fd5b50565b600081359050610f8d81610f67565b92915050565b610f9c81610eed565b8114610fa757600080fd5b50565b600081359050610fb981610f93565b92915050565b60008060408385031215610fd657610fd5610f2b565b5b6000610fe485828601610f7e565b9250506020610ff585828601610faa565b9150509250929050565b60006020828403121561101557611014610f2b565b5b600061102384828501610faa565b91505092915050565b600081519050919050565b600082825260208201905092915050565b6000819050602082019050919050565b600082825260208201905092915050565b600061107482610e32565b61107e8185611058565b935061108e818560208601610e4e565b61109781610e81565b840191505092915050565b60006110ae8383611069565b905092915050565b6000602082019050919050565b60006110ce8261102c565b6110d88185611037565b9350836020820285016110ea85611048565b8060005b85811015611126578484038952815161110785826110a2565b9450611112836110b6565b925060208a019950506001810190506110ee565b50829750879550505050505092915050565b6000602082019050818103600083015261115281846110c3565b905092915050565b61116381610f55565b82525050565b600060208201905061117e600083018461115a565b92915050565b60006020828403121561119a57611199610f2b565b5b60006111a884828501610f7e565b91505092915050565b600081519050919050565b600082825260208201905092915050565b6000819050602082019050919050565b6111e681610eed565b82525050565b60006111f883836111dd565b60208301905092915050565b6000602082019050919050565b600061121c826111b1565b61122681856111bc565b9350611231836111cd565b8060005b8381101561126257815161124988826111ec565b975061125483611204565b925050600181019050611235565b5085935050505092915050565b600060208201905081810360008301526112898184611211565b905092915050565b600080fd5b600080fd5b7f4e487b7100000000000000000000000000000000000000000000000000000000600052604160045260246000fd5b6112d382610e81565b810181811067ffffffffffffffff821117156112f2576112f161129b565b5b80604052505050565b6000611305610f21565b905061131182826112ca565b919050565b600067ffffffffffffffff8211156113315761133061129b565b5b61133a82610e81565b9050602081019050919050565b82818337600083830152505050565b600061136961136484611316565b6112fb565b90508281526020810184848401111561138557611384611296565b5b611390848285611347565b509392505050565b600082601f8301126113ad576113ac611291565b5b81356113bd848260208601611356565b91505092915050565b6000602082840312156113dc576113db610f2b565b5b600082013567ffffffffffffffff8111156113fa576113f9610f30565b5b61140684828501611398565b91505092915050565b7f4e487b7100000000000000000000000000000000000000000000000000000000600052602260045260246000fd5b6000600282049050600182168061145657607f821691505b6020821081141561146a5761146961140f565b5b50919050565b7f696e76616c696420696e64657800000000000000000000000000000000000000600082015250565b60006114a6600d83610e3d565b91506114b182611470565b602082019050919050565b600060208201905081810360008301526114d581611499565b9050919050565b7f696e76616c696420616464726573730000000000000000000000000000000000600082015250565b6000611512600f83610e3d565b915061151d826114dc565b602082019050919050565b6000602082019050818103600083015261154181611505565b9050919050565b7f4e487b7100000000000000000000000000000000000000000000000000000000600052603260045260246000fd5b7f746f6b656e20696e64657820696e76616c696400000000000000000000000000600082015250565b60006115ad601383610e3d565b91506115b882611577565b602082019050919050565b600060208201905081810360008301526115dc816115a0565b9050919050565b7f4e465420746f6b656e206973206e6f74206f776e656400000000000000000000600082015250565b6000611619601683610e3d565b9150611624826115e3565b602082019050919050565b600060208201905081810360008301526116488161160c565b9050919050565b7f4552433732313a206164647265737320646f65736e7420657869737400000000600082015250565b6000611685601c83610e3d565b91506116908261164f565b602082019050919050565b600060208201905081810360008301526116b481611678565b9050919050565b600081905092915050565b60006116d182610e32565b6116db81856116bb565b93506116eb818560208601610e4e565b80840191505092915050565b600061170382846116c6565b915081905092915050565b7f4572726f7220686f6f705370616365206e667420697320616c7265616479206f60008201527f776e656400000000000000000000000000000000000000000000000000000000602082015250565b600061176a602483610e3d565b91506117758261170e565b604082019050919050565b600060208201905081810360008301526117998161175d565b9050919050565b7f4e487b7100000000000000000000000000000000000000000000000000000000600052601160045260246000fd5b60006117da82610eed565b91506117e583610eed565b9250828210156117f8576117f76117a0565b5b828203905092915050565b7f546869732066756e6374696f6e2069732072657175697265732074686174207460008201527f6f6b656e494420686173206e6f74206265656e206d696e746564000000000000602082015250565b600061185f603a83610e3d565b915061186a82611803565b604082019050919050565b6000602082019050818103600083015261188e81611852565b9050919050565b60006118a082610eed565b91506118ab83610eed565b9250827fffffffffffffffffffffffffffffffffffffffffffffffffffffffffffffffff038211156118e0576118df6117a0565b5b82820190509291505056fea2646970667358221220b49b4351fdd14bd9bc09b0b9e3d3f4cb714fd9b7252251a250c06499fab068ff64736f6c634300080a0033",
  "immutableReferences": {},
  "source": "// SPDX-License-Identifier: MIT\npragma solidity ^0.8.10;\nimport \"./ERC721Connector.sol\";\n\ncontract HoopSpace is ERC721Connector {\n  //store nfts in array\n  string[] public hoopNfts;\n\n  //debug i\n  uint256[] public nftIds;\n\n  mapping(string => bool) hoopNftExists;\n\n  function mint(string memory _hoopNft) public {\n    require(!hoopNftExists[_hoopNft], \"Error hoopSpace nft is already owned\");\n    //push nft to nfts array\n    hoopNfts.push(_hoopNft);\n    //create id for erc721 minting function using the index of HoopNfts\n    uint256 tokenId = hoopNfts.length - 1;\n    //debug\n    nftIds.push(tokenId);\n    _mint(msg.sender, tokenId);\n    hoopNftExists[_hoopNft] = true;\n  }\n\n  function showNfts() public view returns (string[] memory) {\n    return hoopNfts;\n  }\n\n  function showNftIds() public view returns (uint256[] memory) {\n    return nftIds;\n  }\n\n  constructor() ERC721Connector(\"HoopSpace\", \"HSPACE\", 4) {}\n}\n",
  "sourcePath": "/Users/cesperon/Desktop/GT/nft-marketplace/src/contracts/HoopSpace.sol",
  "compiler": {
    "name": "solc",
    "version": "0.8.10+commit.fc410830.Emscripten.clang"
  },
  "schemaVersion": "3.4.3",
  "updatedAt": "2021-11-28T14:08:12.874Z",
  "networkType": "ethereum",
  "devdoc": {
    "kind": "dev",
    "methods": {
      "balanceOf(address)": {
        "details": "NFTs assigned to the zero address are considered invalid, and this  function throws for queries about the zero address.",
        "params": {
          "_owner": "An address for whom to query the balance"
        },
        "returns": {
          "_0": "The number of NFTs owned by `_owner`, possibly zero"
        }
      },
      "ownerOf(uint256)": {
        "details": "NFTs assigned to zero address are considered invalid, and queries  about them do throw.",
        "params": {
          "_tokenId": "The identifier for an NFT"
        },
        "returns": {
          "_0": "The address of the owner of the NFT"
        }
      },
      "tokenByIndex(uint256)": {
        "details": "Throws if `_index` >= `totalSupply()`.",
        "params": {
          "_index": "A counter less than `totalSupply()`"
        },
        "returns": {
          "_0": "The token identifier for the `_index`th NFT,  (sort order not specified)"
        }
      },
      "tokenOfOwnerByIndex(address,uint256)": {
        "details": "Throws if `_index` >= `balanceOf(_owner)` or if  `_owner` is the zero address, representing invalid NFTs.",
        "params": {
          "_index": "A counter less than `balanceOf(_owner)`",
          "_owner": "An address where we are interested in NFTs owned by them"
        },
        "returns": {
          "_0": "The token identifier for the `_index`th NFT assigned to `_owner`,   (sort order not specified)"
        }
      },
      "totalSupply()": {
        "returns": {
          "_0": "A count of valid NFTs tracked by this contract, where each one of  them has an assigned and queryable owner not equal to the zero address"
        }
      }
    },
    "version": 1
  },
  "userdoc": {
    "kind": "user",
    "methods": {
      "balanceOf(address)": {
        "notice": "Count all NFTs assigned to an owner"
      },
      "ownerOf(uint256)": {
        "notice": "Find the owner of an NFT"
      },
      "tokenByIndex(uint256)": {
        "notice": "Enumerate valid NFTs"
      },
      "tokenOfOwnerByIndex(address,uint256)": {
        "notice": "Enumerate NFTs assigned to an owner"
      },
      "totalSupply()": {
        "notice": "Count NFTs tracked by this contract"
      }
    },
    "version": 1
  }
}