{
  "contractName": "HoopSpace",
  "abi": [
    {
      "inputs": [],
      "stateMutability": "nonpayable",
      "type": "constructor"
    },
    {
      "anonymous": false,
      "inputs": [
        {
          "indexed": true,
          "internalType": "address",
          "name": "contractAdress",
          "type": "address"
        },
        {
          "indexed": true,
          "internalType": "address",
          "name": "tokenOwner",
          "type": "address"
        },
        {
          "indexed": true,
          "internalType": "uint256",
          "name": "tokenId",
          "type": "uint256"
        }
      ],
      "name": "Transfer",
      "type": "event"
    },
    {
      "inputs": [
        {
          "internalType": "address",
          "name": "_owner",
          "type": "address"
        }
      ],
      "name": "balanceOf",
      "outputs": [
        {
          "internalType": "uint256",
          "name": "",
          "type": "uint256"
        }
      ],
      "stateMutability": "view",
      "type": "function",
      "constant": true
    },
    {
      "inputs": [
        {
          "internalType": "uint256",
          "name": "",
          "type": "uint256"
        }
      ],
      "name": "hoopNfts",
      "outputs": [
        {
          "internalType": "string",
          "name": "",
          "type": "string"
        }
      ],
      "stateMutability": "view",
      "type": "function",
      "constant": true
    },
    {
      "inputs": [],
      "name": "id",
      "outputs": [
        {
          "internalType": "uint256",
          "name": "",
          "type": "uint256"
        }
      ],
      "stateMutability": "view",
      "type": "function",
      "constant": true
    },
    {
      "inputs": [],
      "name": "name",
      "outputs": [
        {
          "internalType": "string",
          "name": "",
          "type": "string"
        }
      ],
      "stateMutability": "view",
      "type": "function",
      "constant": true
    },
    {
      "inputs": [
        {
          "internalType": "uint256",
          "name": "",
          "type": "uint256"
        }
      ],
      "name": "nftIds",
      "outputs": [
        {
          "internalType": "uint256",
          "name": "",
          "type": "uint256"
        }
      ],
      "stateMutability": "view",
      "type": "function",
      "constant": true
    },
    {
      "inputs": [
        {
          "internalType": "uint256",
          "name": "_tokenId",
          "type": "uint256"
        }
      ],
      "name": "ownerOf",
      "outputs": [
        {
          "internalType": "address",
          "name": "",
          "type": "address"
        }
      ],
      "stateMutability": "view",
      "type": "function",
      "constant": true
    },
    {
      "inputs": [],
      "name": "symbol",
      "outputs": [
        {
          "internalType": "string",
          "name": "",
          "type": "string"
        }
      ],
      "stateMutability": "view",
      "type": "function",
      "constant": true
    },
    {
      "inputs": [
        {
          "internalType": "uint256",
          "name": "_index",
          "type": "uint256"
        }
      ],
      "name": "tokenByIndex",
      "outputs": [
        {
          "internalType": "uint256",
          "name": "",
          "type": "uint256"
        }
      ],
      "stateMutability": "view",
      "type": "function",
      "constant": true
    },
    {
      "inputs": [
        {
          "internalType": "address",
          "name": "_owner",
          "type": "address"
        },
        {
          "internalType": "uint256",
          "name": "_index",
          "type": "uint256"
        }
      ],
      "name": "tokenOfOwnerByIndex",
      "outputs": [
        {
          "internalType": "uint256",
          "name": "",
          "type": "uint256"
        }
      ],
      "stateMutability": "view",
      "type": "function",
      "constant": true
    },
    {
      "inputs": [],
      "name": "totalSupply",
      "outputs": [
        {
          "internalType": "uint256",
          "name": "",
          "type": "uint256"
        }
      ],
      "stateMutability": "view",
      "type": "function",
      "constant": true
    },
    {
      "inputs": [
        {
          "internalType": "address",
          "name": "_from",
          "type": "address"
        },
        {
          "internalType": "address",
          "name": "_to",
          "type": "address"
        },
        {
          "internalType": "uint256",
          "name": "_tokenId",
          "type": "uint256"
        }
      ],
      "name": "transferFrom",
      "outputs": [],
      "stateMutability": "payable",
      "type": "function",
      "payable": true
    },
    {
      "inputs": [
        {
          "internalType": "string",
          "name": "_hoopNft",
          "type": "string"
        }
      ],
      "name": "mint",
      "outputs": [],
      "stateMutability": "nonpayable",
      "type": "function"
    },
    {
      "inputs": [],
      "name": "showNfts",
      "outputs": [
        {
          "internalType": "string[]",
          "name": "",
          "type": "string[]"
        }
      ],
      "stateMutability": "view",
      "type": "function",
      "constant": true
    },
    {
      "inputs": [],
      "name": "showNftIds",
      "outputs": [
        {
          "internalType": "uint256[]",
          "name": "",
          "type": "uint256[]"
        }
      ],
      "stateMutability": "view",
      "type": "function",
      "constant": true
    }
  ],
  "bytecode": "0x60806040523480156200001157600080fd5b506040518060400160405280600981526020017f486f6f70537061636500000000000000000000000000000000000000000000008152506040518060400160405280600681526020017f4853504143450000000000000000000000000000000000000000000000000000815250600482828282600090805190602001906200009b929190620000c8565b508160019080519060200190620000b4929190620000c8565b5080600281905550505050505050620001dd565b828054620000d690620001a7565b90600052602060002090601f016020900481019282620000fa576000855562000146565b82601f106200011557805160ff191683800117855562000146565b8280016001018555821562000146579182015b828111156200014557825182559160200191906001019062000128565b5b50905062000155919062000159565b5090565b5b80821115620001745760008160009055506001016200015a565b5090565b7f4e487b7100000000000000000000000000000000000000000000000000000000600052602260045260246000fd5b60006002820490506001821680620001c057607f821691505b60208210811415620001d757620001d662000178565b5b50919050565b611d8b80620001ed6000396000f3fe6080604052600436106100dd5760003560e01c806370a082311161007f578063af640d0f11610059578063af640d0f146102c9578063b4e510e5146102f4578063c6c9bd4714610331578063d85d3d271461036e576100dd565b806370a082311461023657806395d89b41146102735780639618557f1461029e576100dd565b80632f745c59116100bb5780632f745c59146101545780634f6ccce71461019157806353f830fb146101ce5780636352211e146101f9576100dd565b806306fdde03146100e257806318160ddd1461010d57806323b872dd14610138575b600080fd5b3480156100ee57600080fd5b506100f7610397565b6040516101049190611250565b60405180910390f35b34801561011957600080fd5b50610122610429565b60405161012f919061128b565b60405180910390f35b610152600480360381019061014d9190611344565b610436565b005b34801561016057600080fd5b5061017b60048036038101906101769190611397565b610446565b604051610188919061128b565b60405180910390f35b34801561019d57600080fd5b506101b860048036038101906101b391906113d7565b61056c565b6040516101c5919061128b565b60405180910390f35b3480156101da57600080fd5b506101e36105ea565b6040516101f09190611510565b60405180910390f35b34801561020557600080fd5b50610220600480360381019061021b91906113d7565b6106c3565b60405161022d9190611541565b60405180910390f35b34801561024257600080fd5b5061025d6004803603810190610258919061155c565b6107a5565b60405161026a919061128b565b60405180910390f35b34801561027f57600080fd5b50610288610860565b6040516102959190611250565b60405180910390f35b3480156102aa57600080fd5b506102b36108f2565b6040516102c09190611647565b60405180910390f35b3480156102d557600080fd5b506102de61094a565b6040516102eb919061128b565b60405180910390f35b34801561030057600080fd5b5061031b600480360381019061031691906113d7565b610954565b6040516103289190611250565b60405180910390f35b34801561033d57600080fd5b50610358600480360381019061035391906113d7565b610a00565b604051610365919061128b565b60405180910390f35b34801561037a57600080fd5b506103956004803603810190610390919061179e565b610a24565b005b6060600080546103a690611816565b80601f01602080910402602001604051908101604052809291908181526020018280546103d290611816565b801561041f5780601f106103f45761010080835404028352916020019161041f565b820191906000526020600020905b81548152906001019060200180831161040257829003601f168201915b5050505050905090565b6000600580549050905090565b610441838383610b50565b505050565b60008282610453826107a5565b8110610494576040517f08c379a000000000000000000000000000000000000000000000000000000000815260040161048b90611894565b60405180910390fd5b84600073ffffffffffffffffffffffffffffffffffffffff168173ffffffffffffffffffffffffffffffffffffffff161415610505576040517f08c379a00000000000000000000000000000000000000000000000000000000081526004016104fc90611900565b60405180910390fd5b600760008773ffffffffffffffffffffffffffffffffffffffff1673ffffffffffffffffffffffffffffffffffffffff168152602001908152602001600020858154811061055657610555611920565b5b9060005260206000200154935050505092915050565b60008160008110158015610584575060058054905081105b6105c3576040517f08c379a00000000000000000000000000000000000000000000000000000000081526004016105ba9061199b565b60405180910390fd5b600583815481106105d7576105d6611920565b5b9060005260206000200154915050919050565b60606009805480602002602001604051908101604052809291908181526020016000905b828210156106ba57838290600052602060002001805461062d90611816565b80601f016020809104026020016040519081016040528092919081815260200182805461065990611816565b80156106a65780601f1061067b576101008083540402835291602001916106a6565b820191906000526020600020905b81548152906001019060200180831161068957829003601f168201915b50505050508152602001906001019061060e565b50505050905090565b600081600073ffffffffffffffffffffffffffffffffffffffff166003600083815260200190815260200160002060009054906101000a900473ffffffffffffffffffffffffffffffffffffffff1673ffffffffffffffffffffffffffffffffffffffff161415610769576040517f08c379a000000000000000000000000000000000000000000000000000000000815260040161076090611a07565b60405180910390fd5b6003600084815260200190815260200160002060009054906101000a900473ffffffffffffffffffffffffffffffffffffffff16915050919050565b600081600073ffffffffffffffffffffffffffffffffffffffff168173ffffffffffffffffffffffffffffffffffffffff161415610818576040517f08c379a000000000000000000000000000000000000000000000000000000000815260040161080f90611a73565b60405180910390fd5b600460008473ffffffffffffffffffffffffffffffffffffffff1673ffffffffffffffffffffffffffffffffffffffff16815260200190815260200160002054915050919050565b60606001805461086f90611816565b80601f016020809104026020016040519081016040528092919081815260200182805461089b90611816565b80156108e85780601f106108bd576101008083540402835291602001916108e8565b820191906000526020600020905b8154815290600101906020018083116108cb57829003601f168201915b5050505050905090565b6060600a80548060200260200160405190810160405280929190818152602001828054801561094057602002820191906000526020600020905b81548152602001906001019080831161092c575b5050505050905090565b6000600254905090565b6009818154811061096457600080fd5b90600052602060002001600091509050805461097f90611816565b80601f01602080910402602001604051908101604052809291908181526020018280546109ab90611816565b80156109f85780601f106109cd576101008083540402835291602001916109f8565b820191906000526020600020905b8154815290600101906020018083116109db57829003601f168201915b505050505081565b600a8181548110610a1057600080fd5b906000526020600020016000915090505481565b600b81604051610a349190611acf565b908152602001604051809103902060009054906101000a900460ff1615610a90576040517f08c379a0000000000000000000000000000000000000000000000000000000008152600401610a8790611b58565b60405180910390fd5b600981908060018154018082558091505060019003906000526020600020016000909190919091509080519060200190610acb929190611114565b5060006001600980549050610ae09190611ba7565b9050600a819080600181540180825580915050600190039060005260206000200160009091909190915055610b153382610dc7565b6001600b83604051610b279190611acf565b908152602001604051809103902060006101000a81548160ff0219169083151502179055505050565b82818173ffffffffffffffffffffffffffffffffffffffff166003600083815260200190815260200160002060009054906101000a900473ffffffffffffffffffffffffffffffffffffffff1673ffffffffffffffffffffffffffffffffffffffff1614610bf3576040517f08c379a0000000000000000000000000000000000000000000000000000000008152600401610bea90611c4d565b60405180910390fd5b83600073ffffffffffffffffffffffffffffffffffffffff168173ffffffffffffffffffffffffffffffffffffffff161415610c64576040517f08c379a0000000000000000000000000000000000000000000000000000000008152600401610c5b90611a73565b60405180910390fd5b6001600460008873ffffffffffffffffffffffffffffffffffffffff1673ffffffffffffffffffffffffffffffffffffffff1681526020019081526020016000206000828254610cb49190611ba7565b925050819055506001600460008773ffffffffffffffffffffffffffffffffffffffff1673ffffffffffffffffffffffffffffffffffffffff1681526020019081526020016000206000828254610d0b9190611c6d565b92505081905550846003600086815260200190815260200160002060006101000a81548173ffffffffffffffffffffffffffffffffffffffff021916908373ffffffffffffffffffffffffffffffffffffffff160217905550838573ffffffffffffffffffffffffffffffffffffffff168773ffffffffffffffffffffffffffffffffffffffff167fddf252ad1be2c89b69c2b068fc378daa952ba7f163c4a11628f55a4df523b3ef60405160405180910390a4505050505050565b610dd18282610de8565b610dda81611007565b610de48282611050565b5050565b81600073ffffffffffffffffffffffffffffffffffffffff168173ffffffffffffffffffffffffffffffffffffffff161415610e59576040517f08c379a0000000000000000000000000000000000000000000000000000000008152600401610e5090611a73565b60405180910390fd5b81600073ffffffffffffffffffffffffffffffffffffffff166003600083815260200190815260200160002060009054906101000a900473ffffffffffffffffffffffffffffffffffffffff1673ffffffffffffffffffffffffffffffffffffffff1614610efc576040517f08c379a0000000000000000000000000000000000000000000000000000000008152600401610ef390611d35565b60405180910390fd5b836003600085815260200190815260200160002060006101000a81548173ffffffffffffffffffffffffffffffffffffffff021916908373ffffffffffffffffffffffffffffffffffffffff1602179055506001600460008673ffffffffffffffffffffffffffffffffffffffff1673ffffffffffffffffffffffffffffffffffffffff1681526020019081526020016000206000828254610f9e9190611c6d565b92505081905550828473ffffffffffffffffffffffffffffffffffffffff16600073ffffffffffffffffffffffffffffffffffffffff167fddf252ad1be2c89b69c2b068fc378daa952ba7f163c4a11628f55a4df523b3ef60405160405180910390a450505050565b6005819080600181540180825580915050600190039060005260206000200160009091909190915055600580549050600660008381526020019081526020016000208190555050565b600760008373ffffffffffffffffffffffffffffffffffffffff1673ffffffffffffffffffffffffffffffffffffffff168152602001908152602001600020819080600181540180825580915050600190039060005260206000200160009091909190915055600760008373ffffffffffffffffffffffffffffffffffffffff1673ffffffffffffffffffffffffffffffffffffffff1681526020019081526020016000208054905060086000838152602001908152602001600020819055505050565b82805461112090611816565b90600052602060002090601f0160209004810192826111425760008555611189565b82601f1061115b57805160ff1916838001178555611189565b82800160010185558215611189579182015b8281111561118857825182559160200191906001019061116d565b5b509050611196919061119a565b5090565b5b808211156111b357600081600090555060010161119b565b5090565b600081519050919050565b600082825260208201905092915050565b60005b838110156111f15780820151818401526020810190506111d6565b83811115611200576000848401525b50505050565b6000601f19601f8301169050919050565b6000611222826111b7565b61122c81856111c2565b935061123c8185602086016111d3565b61124581611206565b840191505092915050565b6000602082019050818103600083015261126a8184611217565b905092915050565b6000819050919050565b61128581611272565b82525050565b60006020820190506112a0600083018461127c565b92915050565b6000604051905090565b600080fd5b600080fd5b600073ffffffffffffffffffffffffffffffffffffffff82169050919050565b60006112e5826112ba565b9050919050565b6112f5816112da565b811461130057600080fd5b50565b600081359050611312816112ec565b92915050565b61132181611272565b811461132c57600080fd5b50565b60008135905061133e81611318565b92915050565b60008060006060848603121561135d5761135c6112b0565b5b600061136b86828701611303565b935050602061137c86828701611303565b925050604061138d8682870161132f565b9150509250925092565b600080604083850312156113ae576113ad6112b0565b5b60006113bc85828601611303565b92505060206113cd8582860161132f565b9150509250929050565b6000602082840312156113ed576113ec6112b0565b5b60006113fb8482850161132f565b91505092915050565b600081519050919050565b600082825260208201905092915050565b6000819050602082019050919050565b600082825260208201905092915050565b600061144c826111b7565b6114568185611430565b93506114668185602086016111d3565b61146f81611206565b840191505092915050565b60006114868383611441565b905092915050565b6000602082019050919050565b60006114a682611404565b6114b0818561140f565b9350836020820285016114c285611420565b8060005b858110156114fe57848403895281516114df858261147a565b94506114ea8361148e565b925060208a019950506001810190506114c6565b50829750879550505050505092915050565b6000602082019050818103600083015261152a818461149b565b905092915050565b61153b816112da565b82525050565b60006020820190506115566000830184611532565b92915050565b600060208284031215611572576115716112b0565b5b600061158084828501611303565b91505092915050565b600081519050919050565b600082825260208201905092915050565b6000819050602082019050919050565b6115be81611272565b82525050565b60006115d083836115b5565b60208301905092915050565b6000602082019050919050565b60006115f482611589565b6115fe8185611594565b9350611609836115a5565b8060005b8381101561163a57815161162188826115c4565b975061162c836115dc565b92505060018101905061160d565b5085935050505092915050565b6000602082019050818103600083015261166181846115e9565b905092915050565b600080fd5b600080fd5b7f4e487b7100000000000000000000000000000000000000000000000000000000600052604160045260246000fd5b6116ab82611206565b810181811067ffffffffffffffff821117156116ca576116c9611673565b5b80604052505050565b60006116dd6112a6565b90506116e982826116a2565b919050565b600067ffffffffffffffff82111561170957611708611673565b5b61171282611206565b9050602081019050919050565b82818337600083830152505050565b600061174161173c846116ee565b6116d3565b90508281526020810184848401111561175d5761175c61166e565b5b61176884828561171f565b509392505050565b600082601f83011261178557611784611669565b5b813561179584826020860161172e565b91505092915050565b6000602082840312156117b4576117b36112b0565b5b600082013567ffffffffffffffff8111156117d2576117d16112b5565b5b6117de84828501611770565b91505092915050565b7f4e487b7100000000000000000000000000000000000000000000000000000000600052602260045260246000fd5b6000600282049050600182168061182e57607f821691505b60208210811415611842576118416117e7565b5b50919050565b7f696e76616c6964206f776e657220746f6b656e20696e64657800000000000000600082015250565b600061187e6019836111c2565b915061188982611848565b602082019050919050565b600060208201905081810360008301526118ad81611871565b9050919050565b7f696e76616c696420616464726573730000000000000000000000000000000000600082015250565b60006118ea600f836111c2565b91506118f5826118b4565b602082019050919050565b60006020820190508181036000830152611919816118dd565b9050919050565b7f4e487b7100000000000000000000000000000000000000000000000000000000600052603260045260246000fd5b7f746f6b656e20696e64657820696e76616c696400000000000000000000000000600082015250565b60006119856013836111c2565b91506119908261194f565b602082019050919050565b600060208201905081810360008301526119b481611978565b9050919050565b7f4e465420746f6b656e206973206e6f74206f776e656400000000000000000000600082015250565b60006119f16016836111c2565b91506119fc826119bb565b602082019050919050565b60006020820190508181036000830152611a20816119e4565b9050919050565b7f4552433732313a206164647265737320646f65736e7420657869737400000000600082015250565b6000611a5d601c836111c2565b9150611a6882611a27565b602082019050919050565b60006020820190508181036000830152611a8c81611a50565b9050919050565b600081905092915050565b6000611aa9826111b7565b611ab38185611a93565b9350611ac38185602086016111d3565b80840191505092915050565b6000611adb8284611a9e565b915081905092915050565b7f4572726f7220686f6f705370616365206e667420697320616c7265616479206f60008201527f776e656400000000000000000000000000000000000000000000000000000000602082015250565b6000611b426024836111c2565b9150611b4d82611ae6565b604082019050919050565b60006020820190508181036000830152611b7181611b35565b9050919050565b7f4e487b7100000000000000000000000000000000000000000000000000000000600052601160045260246000fd5b6000611bb282611272565b9150611bbd83611272565b925082821015611bd057611bcf611b78565b5b828203905092915050565b7f73656e646572206f66207472616e73616374696f6e206973206e6f742074686560008201527f206f776e6572206f662074686520746f6b656e00000000000000000000000000602082015250565b6000611c376033836111c2565b9150611c4282611bdb565b604082019050919050565b60006020820190508181036000830152611c6681611c2a565b9050919050565b6000611c7882611272565b9150611c8383611272565b9250827fffffffffffffffffffffffffffffffffffffffffffffffffffffffffffffffff03821115611cb857611cb7611b78565b5b828201905092915050565b7f546869732066756e6374696f6e2069732072657175697265732074686174207460008201527f6f6b656e494420686173206e6f74206265656e206d696e746564000000000000602082015250565b6000611d1f603a836111c2565b9150611d2a82611cc3565b604082019050919050565b60006020820190508181036000830152611d4e81611d12565b905091905056fea2646970667358221220a4eadb1af5271e59ae87bc01dadef86aa8708d5d5db4f50927b9dc5b10669fd664736f6c634300080a0033",
  "immutableReferences": {},
  "source": "// SPDX-License-Identifier: MIT\npragma solidity ^0.8.10;\nimport \"./ERC721Connector.sol\";\n\ncontract HoopSpace is ERC721Connector {\n  constructor() ERC721Connector(\"HoopSpace\", \"HSPACE\", 4) {}\n\n  //store nfts in array\n  string[] public hoopNfts;\n  //debug i\n  uint256[] public nftIds;\n  mapping(string => bool) hoopNftExists;\n\n  function mint(string memory _hoopNft) public {\n    require(!hoopNftExists[_hoopNft], \"Error hoopSpace nft is already owned\");\n    //push nft to nfts array\n    hoopNfts.push(_hoopNft);\n    //create id for erc721 minting function using the index of HoopNfts\n    uint256 tokenId = hoopNfts.length - 1;\n    //debug\n    nftIds.push(tokenId);\n    _mint(msg.sender, tokenId);\n    hoopNftExists[_hoopNft] = true;\n  }\n\n  function showNfts() public view returns (string[] memory) {\n    return hoopNfts;\n  }\n\n  function showNftIds() public view returns (uint256[] memory) {\n    return nftIds;\n  }\n}\n",
  "sourcePath": "/Users/cesperon/Desktop/GT/nft-marketplace/src/contracts/HoopSpace.sol",
  "compiler": {
    "name": "solc",
    "version": "0.8.10+commit.fc410830.Emscripten.clang"
  },
  "schemaVersion": "3.4.3",
  "updatedAt": "2021-12-01T12:12:33.996Z",
  "networkType": "ethereum",
  "devdoc": {
    "kind": "dev",
    "methods": {
      "balanceOf(address)": {
        "details": "NFTs assigned to the zero address are considered invalid, and this  function throws for queries about the zero address.",
        "params": {
          "_owner": "An address for whom to query the balance"
        },
        "returns": {
          "_0": "The number of NFTs owned by `_owner`, possibly zero"
        }
      },
      "ownerOf(uint256)": {
        "details": "NFTs assigned to zero address are considered invalid, and queries  about them do throw.",
        "params": {
          "_tokenId": "The identifier for an NFT"
        },
        "returns": {
          "_0": "The address of the owner of the NFT"
        }
      },
      "tokenByIndex(uint256)": {
        "details": "Throws if `_index` >= `totalSupply()`.",
        "params": {
          "_index": "A counter less than `totalSupply()`"
        },
        "returns": {
          "_0": "The token identifier for the `_index`th NFT,  (sort order not specified)"
        }
      },
      "tokenOfOwnerByIndex(address,uint256)": {
        "details": "Throws if `_index` >= `balanceOf(_owner)` or if  `_owner` is the zero address, representing invalid NFTs.",
        "params": {
          "_index": "A counter less than `balanceOf(_owner)`",
          "_owner": "An address where we are interested in NFTs owned by them"
        },
        "returns": {
          "_0": "The token identifier for the `_index`th NFT assigned to `_owner`,   (sort order not specified)"
        }
      },
      "totalSupply()": {
        "returns": {
          "_0": "A count of valid NFTs tracked by this contract, where each one of  them has an assigned and queryable owner not equal to the zero address"
        }
      },
      "transferFrom(address,address,uint256)": {
        "details": "Throws unless `msg.sender` is the current owner, an authorized  operator, or the approved address for this NFT. Throws if `_from` is  not the current owner. Throws if `_to` is the zero address. Throws if  `_tokenId` is not a valid NFT.",
        "params": {
          "_from": "The current owner of the NFT",
          "_to": "The new owner",
          "_tokenId": "The NFT to transfer"
        }
      }
    },
    "version": 1
  },
  "userdoc": {
    "kind": "user",
    "methods": {
      "balanceOf(address)": {
        "notice": "Count all NFTs assigned to an owner"
      },
      "ownerOf(uint256)": {
        "notice": "Find the owner of an NFT"
      },
      "tokenByIndex(uint256)": {
        "notice": "Enumerate valid NFTs"
      },
      "tokenOfOwnerByIndex(address,uint256)": {
        "notice": "Enumerate NFTs assigned to an owner"
      },
      "totalSupply()": {
        "notice": "Count NFTs tracked by this contract"
      },
      "transferFrom(address,address,uint256)": {
        "notice": "Transfer ownership of an NFT -- THE CALLER IS RESPONSIBLE  TO CONFIRM THAT `_to` IS CAPABLE OF RECEIVING NFTS OR ELSE  THEY MAY BE PERMANENTLY LOST"
      }
    },
    "version": 1
  }
}