{
  "contractName": "HoopSpace",
  "abi": [
    {
      "inputs": [],
      "stateMutability": "nonpayable",
      "type": "constructor"
    },
    {
      "anonymous": false,
      "inputs": [
        {
          "indexed": true,
          "internalType": "address",
          "name": "contractAdress",
          "type": "address"
        },
        {
          "indexed": true,
          "internalType": "address",
          "name": "tokenOwner",
          "type": "address"
        },
        {
          "indexed": true,
          "internalType": "uint256",
          "name": "tokenId",
          "type": "uint256"
        }
      ],
      "name": "Transfer",
      "type": "event"
    },
    {
      "inputs": [
        {
          "internalType": "uint256",
          "name": "",
          "type": "uint256"
        }
      ],
      "name": "hoopNfts",
      "outputs": [
        {
          "internalType": "string",
          "name": "",
          "type": "string"
        }
      ],
      "stateMutability": "view",
      "type": "function",
      "constant": true
    },
    {
      "inputs": [],
      "name": "id",
      "outputs": [
        {
          "internalType": "uint256",
          "name": "",
          "type": "uint256"
        }
      ],
      "stateMutability": "view",
      "type": "function",
      "constant": true
    },
    {
      "inputs": [],
      "name": "name",
      "outputs": [
        {
          "internalType": "string",
          "name": "",
          "type": "string"
        }
      ],
      "stateMutability": "view",
      "type": "function",
      "constant": true
    },
    {
      "inputs": [],
      "name": "symbol",
      "outputs": [
        {
          "internalType": "string",
          "name": "",
          "type": "string"
        }
      ],
      "stateMutability": "view",
      "type": "function",
      "constant": true
    },
    {
      "inputs": [
        {
          "internalType": "string",
          "name": "_hoopNft",
          "type": "string"
        }
      ],
      "name": "mint",
      "outputs": [],
      "stateMutability": "nonpayable",
      "type": "function"
    }
  ],
  "bytecode": "0x60806040523480156200001157600080fd5b506040518060400160405280600981526020017f486f6f70537061636500000000000000000000000000000000000000000000008152506040518060400160405280600681526020017f4853504143450000000000000000000000000000000000000000000000000000815250600482828282600090805190602001906200009b929190620000c8565b508160019080519060200190620000b4929190620000c8565b5080600281905550505050505050620001dd565b828054620000d690620001a7565b90600052602060002090601f016020900481019282620000fa576000855562000146565b82601f106200011557805160ff191683800117855562000146565b8280016001018555821562000146579182015b828111156200014557825182559160200191906001019062000128565b5b50905062000155919062000159565b5090565b5b80821115620001745760008160009055506001016200015a565b5090565b7f4e487b7100000000000000000000000000000000000000000000000000000000600052602260045260246000fd5b60006002820490506001821680620001c057607f821691505b60208210811415620001d757620001d662000178565b5b50919050565b610cd480620001ed6000396000f3fe608060405234801561001057600080fd5b50600436106100575760003560e01c806306fdde031461005c57806395d89b411461007a578063af640d0f14610098578063b4e510e5146100b6578063d85d3d27146100e6575b600080fd5b610064610102565b604051610071919061073a565b60405180910390f35b610082610194565b60405161008f919061073a565b60405180910390f35b6100a0610226565b6040516100ad9190610775565b60405180910390f35b6100d060048036038101906100cb91906107d0565b610230565b6040516100dd919061073a565b60405180910390f35b61010060048036038101906100fb9190610932565b6102dc565b005b606060008054610111906109aa565b80601f016020809104026020016040519081016040528092919081815260200182805461013d906109aa565b801561018a5780601f1061015f5761010080835404028352916020019161018a565b820191906000526020600020905b81548152906001019060200180831161016d57829003601f168201915b5050505050905090565b6060600180546101a3906109aa565b80601f01602080910402602001604051908101604052809291908181526020018280546101cf906109aa565b801561021c5780601f106101f15761010080835404028352916020019161021c565b820191906000526020600020905b8154815290600101906020018083116101ff57829003601f168201915b5050505050905090565b6000600254905090565b6005818154811061024057600080fd5b90600052602060002001600091509050805461025b906109aa565b80601f0160208091040260200160405190810160405280929190818152602001828054610287906109aa565b80156102d45780601f106102a9576101008083540402835291602001916102d4565b820191906000526020600020905b8154815290600101906020018083116102b757829003601f168201915b505050505081565b6006816040516102ec9190610a18565b908152602001604051809103902060009054906101000a900460ff1615610348576040517f08c379a000000000000000000000000000000000000000000000000000000000815260040161033f90610aa1565b60405180910390fd5b6005819080600181540180825580915050600190039060005260206000200160009091909190915090805190602001906103839291906105fe565b50600060016005805490506103989190610af0565b90506103a433826103df565b60016006836040516103b69190610a18565b908152602001604051809103902060006101000a81548160ff0219169083151502179055505050565b81600073ffffffffffffffffffffffffffffffffffffffff168173ffffffffffffffffffffffffffffffffffffffff161415610450576040517f08c379a000000000000000000000000000000000000000000000000000000000815260040161044790610b96565b60405180910390fd5b81600073ffffffffffffffffffffffffffffffffffffffff166003600083815260200190815260200160002060009054906101000a900473ffffffffffffffffffffffffffffffffffffffff1673ffffffffffffffffffffffffffffffffffffffff16146104f3576040517f08c379a00000000000000000000000000000000000000000000000000000000081526004016104ea90610c28565b60405180910390fd5b836003600085815260200190815260200160002060006101000a81548173ffffffffffffffffffffffffffffffffffffffff021916908373ffffffffffffffffffffffffffffffffffffffff1602179055506001600460008673ffffffffffffffffffffffffffffffffffffffff1673ffffffffffffffffffffffffffffffffffffffff16815260200190815260200160002060008282546105959190610c48565b92505081905550828473ffffffffffffffffffffffffffffffffffffffff16600073ffffffffffffffffffffffffffffffffffffffff167fddf252ad1be2c89b69c2b068fc378daa952ba7f163c4a11628f55a4df523b3ef60405160405180910390a450505050565b82805461060a906109aa565b90600052602060002090601f01602090048101928261062c5760008555610673565b82601f1061064557805160ff1916838001178555610673565b82800160010185558215610673579182015b82811115610672578251825591602001919060010190610657565b5b5090506106809190610684565b5090565b5b8082111561069d576000816000905550600101610685565b5090565b600081519050919050565b600082825260208201905092915050565b60005b838110156106db5780820151818401526020810190506106c0565b838111156106ea576000848401525b50505050565b6000601f19601f8301169050919050565b600061070c826106a1565b61071681856106ac565b93506107268185602086016106bd565b61072f816106f0565b840191505092915050565b600060208201905081810360008301526107548184610701565b905092915050565b6000819050919050565b61076f8161075c565b82525050565b600060208201905061078a6000830184610766565b92915050565b6000604051905090565b600080fd5b600080fd5b6107ad8161075c565b81146107b857600080fd5b50565b6000813590506107ca816107a4565b92915050565b6000602082840312156107e6576107e561079a565b5b60006107f4848285016107bb565b91505092915050565b600080fd5b600080fd5b7f4e487b7100000000000000000000000000000000000000000000000000000000600052604160045260246000fd5b61083f826106f0565b810181811067ffffffffffffffff8211171561085e5761085d610807565b5b80604052505050565b6000610871610790565b905061087d8282610836565b919050565b600067ffffffffffffffff82111561089d5761089c610807565b5b6108a6826106f0565b9050602081019050919050565b82818337600083830152505050565b60006108d56108d084610882565b610867565b9050828152602081018484840111156108f1576108f0610802565b5b6108fc8482856108b3565b509392505050565b600082601f830112610919576109186107fd565b5b81356109298482602086016108c2565b91505092915050565b6000602082840312156109485761094761079a565b5b600082013567ffffffffffffffff8111156109665761096561079f565b5b61097284828501610904565b91505092915050565b7f4e487b7100000000000000000000000000000000000000000000000000000000600052602260045260246000fd5b600060028204905060018216806109c257607f821691505b602082108114156109d6576109d561097b565b5b50919050565b600081905092915050565b60006109f2826106a1565b6109fc81856109dc565b9350610a0c8185602086016106bd565b80840191505092915050565b6000610a2482846109e7565b915081905092915050565b7f4572726f7220686f6f705370616365206e667420697320616c7265616479206f60008201527f776e656400000000000000000000000000000000000000000000000000000000602082015250565b6000610a8b6024836106ac565b9150610a9682610a2f565b604082019050919050565b60006020820190508181036000830152610aba81610a7e565b9050919050565b7f4e487b7100000000000000000000000000000000000000000000000000000000600052601160045260246000fd5b6000610afb8261075c565b9150610b068361075c565b925082821015610b1957610b18610ac1565b5b828203905092915050565b7f4552433732313a206d696e74696e6720746f20746865207a65726f206164647260008201527f6573730000000000000000000000000000000000000000000000000000000000602082015250565b6000610b806023836106ac565b9150610b8b82610b24565b604082019050919050565b60006020820190508181036000830152610baf81610b73565b9050919050565b7f546869732066756e6374696f6e2069732072657175697265732074686174207460008201527f6f6b656e494420686173206e6f74206265656e206d696e746564000000000000602082015250565b6000610c12603a836106ac565b9150610c1d82610bb6565b604082019050919050565b60006020820190508181036000830152610c4181610c05565b9050919050565b6000610c538261075c565b9150610c5e8361075c565b9250827fffffffffffffffffffffffffffffffffffffffffffffffffffffffffffffffff03821115610c9357610c92610ac1565b5b82820190509291505056fea2646970667358221220a9d7d482bd7f3611e01a542cd7c9675d6b7f858b2f770a855f758447d2a3308f64736f6c634300080a0033",
  "immutableReferences": {},
  "source": "// SPDX-License-Identifier: MIT\npragma solidity ^0.8.10;\nimport \"./ERC721Connector.sol\";\n\ncontract HoopSpace is ERC721Connector {\n  //store nfts in array\n  string[] public hoopNfts;\n\n  mapping(string => bool) hoopNftExists;\n\n  function mint(string memory _hoopNft) public {\n    require(!hoopNftExists[_hoopNft], \"Error hoopSpace nft is already owned\");\n    //push nft to nfts array\n    hoopNfts.push(_hoopNft);\n    //create id for erc721 minting function using the index of HoopNfts\n    uint256 tokenId = hoopNfts.length - 1;\n    _mint(msg.sender, tokenId);\n    hoopNftExists[_hoopNft] = true;\n  }\n\n  constructor() ERC721Connector(\"HoopSpace\", \"HSPACE\", 4) {}\n}\n",
  "sourcePath": "/Users/cesperon/Desktop/HoopSpaceMarketPlace/nft-marketplace/src/contracts/HoopSpace.sol",
  "compiler": {
    "name": "solc",
    "version": "0.8.10+commit.fc410830.Emscripten.clang"
  },
  "schemaVersion": "3.4.3",
  "updatedAt": "2021-11-25T14:35:10.771Z",
  "networkType": "ethereum",
  "devdoc": {
    "kind": "dev",
    "methods": {},
    "version": 1
  },
  "userdoc": {
    "kind": "user",
    "methods": {},
    "version": 1
  }
}